:020000040800F2
:100000004821002021020008892000080319000867
:10001000212000086B040008DF2500080000000014
:10002000000000000000000000000000890100083E
:10003000A304000800000000CD010008DD22000834
:100040003B0200083B0200083B0200083B0200089C
:100050003B0200083B0200083B0200083B0200088C
:100060003B0200083B0200083B0200083B0200087C
:100070003B0200083B0200083B0200083B0200086C
:100080003B0200083B0200083B0200083B0200085C
:100090003B0200083B0200083B0200083B0200084C
:1000A0003B020008692300083B0200083B020008ED
:1000B0003B0200083B020008752300083B020008D1
:1000C0003B0200083B0200083B0200083B0200081C
:1000D0003B0200083B0200083B0200083B0200080C
:1000E0003B0200083B0200083B02000800F002F857
:1000F00000F03AF80AA090E8000C82448344AAF188
:100100000107DA4501D100F02FF8AFF2090EBAE885
:100110000F0013F0010F18BFFB1A43F0010318473B
:1001200084450000A4450000103A24BF78C878C177
:10013000FAD8520724BF30C830C144BF04680C60ED
:10014000704700000023002400250026103A28BF35
:1001500078C1FBD8520728BF30C148BF0B60704739
:100160001FB51FBD10B510BD00F045F91146FFF7D2
:10017000F7FF02F045FA00F063F903B4FFF7F2FF6E
:1001800003BC00F06BF90000224B19680868B0E866
:10019000F00F80F30988BFF36F8F4FF0000080F3FA
:1001A00011884EF00D0E70470000000006480068F0
:1001B000006880F3088862B661B6BFF34F8FBFF363
:1001C0006F8F00DF00BF00BF08ED00E0EFF3098094
:1001D000BFF36F8F0F4B1A6820E9F00F106008B55E
:1001E0004FF0500080F31188BFF34F8FBFF36F8F34
:1001F00003F016F94FF0000080F31188BDE80840C5
:1002000019680868B0E8F00F80F30988BFF36F8FB2
:10021000704700BF1C000020EFF30580704700000E
:100220000948804709480047FEE7FEE7FEE7FEE78A
:10023000FEE7FEE7FEE7FEE7FEE7FEE704480549C6
:10024000054A064B7047000067230008ED000008D0
:10025000481B002048210020481D0020481D002088
:10026000032A40F2308010F0030C00F0158011F8E2
:10027000013BBCF1020F624498BF11F801CB00F8BA
:10028000013B38BF11F8013BA2F1040298BF00F80E
:1002900001CB38BF00F8013B11F0030300F0578099
:1002A000083AC0F0088051F8043B083A51F804CBF2
:1002B000A0E80810F5E7121D5CBF51F8043B40F8B8
:1002C000043BAFF30080D20724BF11F8013B11F8C3
:1002D00001CB48BF11F8012B24BF00F8013B00F807
:1002E00001CB48BF00F8012B704702F0FF0343EA3F
:1002F000032242EA024200F05EB84FF0000200B56D
:10030000134694469646203922BFA0E80C50A0E838
:100310000C50B1F12001BFF4F7AF090728BFA0E8E6
:100320000C5048BF0CC05DF804EB890028BF40F8B2
:10033000042B08BF704748BF20F8022B11F0804FF4
:1003400018BF00F8012B704770477047704710B511
:10035000203AC0F00B80B1E81850203AA0E81850BD
:10036000B1E81850A0E81850BFF4F5AF5FEA027C7E
:1003700024BFB1E81850A0E8185044BF18C918C0ED
:10038000BDE810405FEA827C24BF51F8043B40F88E
:10039000043B08BF7047D20728BF31F8023B48BF73
:1003A00011F8012B28BF20F8023B48BF00F8012BB1
:1003B00070474FF000020429C0F0128010F0030CC7
:1003C0003FF49DAFCCF1040CBCF1020F18BF00F854
:1003D000012BA8BF20F8022BA1EB0C01FFF78FBF68
:1003E0005FEAC17C24BF00F8012B00F8012B48BF55
:1003F00000F8012B7047754600F02CF8AE4605005A
:100400006946534620F00700854618B020B5FFF72F
:1004100015FFBDE820404FF000064FF000074FF0F9
:1004200000084FF0000B21F00701AC46ACE8C00912
:10043000ACE8C009ACE8C009ACE8C0098D4670471B
:1004400010B50446AFF300802046BDE81040FFF72A
:1004500094BE000000487047E41A002001491820AB
:10046000ABBEFEE7260002007047FEE770B50A4CFF
:1004700000220121204600F021F94FF4FA752846A8
:1004800000F012F801221146204600F017F9284624
:10049000BDE8704000F008B800080140FFF7E6FF33
:1004A000FCE7704772B6FEE770B5044600F00EF93F
:1004B0000546601C02D004480078044400F006F9A8
:1004C000401BA042FAD370BD0C0000202DE9F84F6C
:1004D00000240023DFF8C4914FF00F08A9F1040BAA
:1004E00009F1040AABF1040ED1E00127A7403A401C
:1004F000BA4275D1DFF8A8C14D68A5EB0C06654579
:100500002BD00DDC032D34D005DC35B3012D19D0F3
:10051000022D2FD11BE0112D16D0122D2AD119E05A
:10052000B6F5881F19D006DCB6F5803F15D0B6F5B4
:10053000801F1FD111E0B6F5001F0ED0B6F5041FC5
:1005400018D10AE0CB6815E0CB681B1D12E0CB6820
:1005500008330FE0CB680C330CE08B6823B1012B20
:1005600004D00823476105E0042303E00823076162
:1005700000E00023FF2A01D8054601E000F1040550
:1005800002D84FEA840603E0A4F108064FEA860683
:100590002F6808FA06FC27EA0C0703FA06F647EA72
:1005A00006072F604D68ED0070D53E4DAE6946F0F0
:1005B0000106AE61AD6905F0010500953A4D24F0E4
:1005C00003067719BE68A5072D0F08FA05FC26EA71
:1005D0000C06DFF8D8C0604503D14FF0000C17E0DF
:1005E00054E0DFF8CCC0604502D14FF0010C0FE0C1
:1005F000DFF8C0C0604502D14FF0020C08E0DFF820
:10060000B8C0604502D14FF0030C01E04FF0040C7C
:100610000CFA05FC4CEA060CC7F808C04D68ED0260
:1006200005D5D9F800501543C9F8005004E0D9F8B1
:1006300000509543C9F800504D68AD0205D5DAF871
:1006400000501543CAF8005004E0DAF80050954312
:10065000CAF800504D68AD0305D5DBF800501543CE
:10066000CBF8005004E0DBF800509543CBF8005085
:100670004D68ED0305D5DEF800501543CEF8005067
:1006800004E0DEF800509543CEF80050641C0A6880
:1006900032FA04F57FF429AFBDE8F88F0804014071
:1006A000000011100010024000000140000801404D
:1006B000000C01400010014000140140002A01D04C
:1006C00001617047090401617047000001488068BA
:1006D000704700000C00002070B50446002C04D0C8
:1006E00094F83D00002510B106E0012070BD84F8AB
:1006F0003C50204600F002FA242084F83D00206897
:10070000016821F0010101602068016841F40041A5
:1007100001602068016821F40041016000F0BEFB27
:100720004F4B6168994203D84E49884203D304E095
:100730004D49884201D2012070BD4C49B0FBF1F116
:100740002268566826F03F060E43566062689A4259
:1007500001D8491C07E04FF4967251434FF47A7266
:10076000B1FBF2F1491C2268166A26F03F063143BC
:1007700011626168994210D84900401EB0FBF1F245
:10078000521CC2F30B02042A01D2042022E0B0FB67
:10079000F1F0401CC0F30B001CE0A268F2B301EBC7
:1007A000C10303EB0116431EB3FBF6F35B1C43F4DA
:1007B00080431B0549D092B301EBC10202EB01114A
:1007C000401EB0FBF1F0401CC0F30B0040F4804031
:1007D00040F400402168CA694CF6FF739A43104305
:1007E000C861D4E9071001432068026822F0C00202
:1007F00011430160D4E9030101432068826848F293
:10080000FF339A4311438160D4E905100143206806
:10081000C26822F0FF021143C16001E00EE016E061
:100820002068016841F0010101602564202084F8FE
:100830003D00256384F83E50002070BD01EB410669
:10084000431EB3FBF6F35B1CB3E70120C2E701EBE9
:100850004101401EB0FBF1F0401CC0F30B00B7E7B4
:10086000A086010080841E0000093D0040420F0068
:100870002DE9F84F04468A4615469946DDF828804A
:10088000FFF724FF064694F83D00202802D00220FE
:10089000BDE8F88F1923012245492046009601F052
:1008A0002FF908B10220F3E794F83C00012807D0A3
:1008B000012084F83C0020680168C90702D005E0E7
:1008C0000220E5E7016841F001010160206801684C
:1008D00021F400610160212084F83D00102084F89B
:1008E0003E00002727646562A4F82A90608D208569
:1008F0003048E062334642465146204601F01AF83D
:1009000008B10120C4E720684169806900903EE099
:1009100032464146204601F0ADF948B1206C04282A
:1009200004D12068016841F4007101600120AFE743
:10093000606A216800780861656A6D1C6562608D77
:10094000401E6085208D401E80B22085226851693E
:10095000C94349070BD450B128781061606A401C24
:100960006062608D401E6085208D401E208532466D
:100970004146204601F098F848B1206C042804D183
:100980002068016841F400710160012080E7208D3A
:100990000028BDD11F3454F81F0C016841F40071C8
:1009A00001602020A077E7776777002070E70000DC
:1009B000020010000000FFFF2DE9FF4F83B0044646
:1009C000DDE911988A469346109DFFF77FFE0646A3
:1009D00094F83D00202803D0022007B0BDE8F08F36
:1009E0001923012243492046009601F089F808B1F5
:1009F0000220F2E794F83C00012807D0012084F897
:100A00003C0020680168C90702D005E00220E4E745
:100A1000016841F0010101602068016821F4006172
:100A20000160212084F83D00402084F83E0000272A
:100A300027646562A4F82A90608D20852E48E062C4
:100A4000CDE900865A4651462046069B00F0CAFF73
:100A500080B30120C1E732464146204601F00AF941
:100A600048B1206C042804D12068016841F4007169
:100A700001600120B1E7606A216800780861656A59
:100A80006D1C6562208D401E80B22085618D491EDF
:100A9000618523685969C94349070BD450B1287847
:100AA0001861606A401C6062208D401E2085608D48
:100AB000401E6085208D0028CDD13246414620461B
:100AC00000F0F2FF48B1206C042804D120680168CE
:100AD00041F40071016001207FE71F3454F81F0CBE
:100AE000016841F4007101602020A077E777677703
:100AF000002072E7020010000000FFFF10B586B072
:100B000000210291039104910591006813498842E4
:100B100022D1134CA06940F00800A061A06900F048
:100B2000080001904FF440700290122003900320BF
:100B3000059002A90B48FFF7C9FC0B49486840F033
:100B4000E06040F002004860E06940F40010E061BD
:100B5000E06900F40010019006B010BD00540040A0
:100B600000100240000C0140000001400248816872
:100B700002781144816070470C00002010B50748CE
:100B8000016841F010010160032000F0A7F80F2078
:100B900000F006F800F050F8002010BD00200240E0
:100BA00030B587B005461F48C16941F00401C161F5
:100BB000C06900F00400009001A902A800F04AF901
:100BC0000598B0B100F06AF940001749B0FBF1F1A7
:100BD000491E1748154A026040F2E732C260416080
:100BE000002202618260826100F086FB04461CB133
:100BF00015E000F053F9E8E70D4800F0F3FB044678
:100C00006CB91E2000F03CF8102D07D200222946B6
:100C10001E2000F043F80748056000E0012407B0FB
:100C2000204630BD0010024040420F000008004046
:100C3000C80100201000002008B50F48816941F06C
:100C400001018161816901F001010091C16941F0F7
:100C50008051C161C06900F08050009000220F21D6
:100C6000901E00F01BF80549486820F0E06040F055
:100C70000070486008BD0000001002400000014004
:100C8000002809DB00F01F0201219140400980008B
:100C900000F1E020C0F8001170470000F0B40D46EC
:100CA0000D4B1B68C3F30223C3F10704042C00D9C6
:100CB0000424191D072901D2002300E0DB1E0126B0
:100CC00006FA04F1491E294099409E40761E1640BE
:100CD0003143F0BC01F084BC0CED00E000F00701F2
:100CE000054A10684FF6FF03184040EA0120034907
:100CF00008431060704700000CED00E00000FA05AA
:100D00002DE9F04704460D46002C17D0DFF830815E
:100D1000D8F8000000F00700A84211D2D8F800006F
:100D200020F007002843C8F80000D8F8000000F0C1
:100D30000700A84204D00120BDE8F0870120FBE7AE
:100D40002068404E810712D5400703D5706840F4F3
:100D5000E06070602078000703D5706840F4605050
:100D600070607068A16820F0F0000843706020781F
:100D7000C0072CD06068012806D0022809D031684D
:100D800089070BD40120D7E73168890306D40120F5
:100D9000D2E73168890101D40120CDE7716821F0E3
:100DA000030101437160FFF791FC074641F2883966
:100DB00006E0FFF78BFCC01B484501D90320BBE7C9
:100DC0007068616800F00C00B0EB810FF1D1D8F8C9
:100DD000000000F00700A8420ED9D8F8000020F06B
:100DE00007002843C8F80000D8F8000000F007000A
:100DF000A84201D001209FE72078400705D5706800
:100E0000E16820F4E060084370602078000706D5B0
:100E10007068216920F4605040EAC100706000F001
:100E20004DF87168084AC1F30311515CC840074985
:100E3000086007480068FFF7B3FE00207CE7000069
:100E400000200240001002407E3E000818000020F2
:100E5000100000200F2202600B4A536803F00303C6
:100E60004360536803F0F0038360536803F4E06366
:100E7000C360526802F46052D208026103480068FD
:100E800000F0070008607047001002400020024098
:100E900001480068704700001800002000B5FFF707
:100EA000F7FF04494968044AC1F30221515CC84074
:100EB00000BD0000001002408E3E00080E4B596835
:100EC0000E4801F00C02042A11D0082A0FD10C4858
:100ED000C1F38342805CC9030AD55968084AC1F34B
:100EE0004041921E515C054A5043B0FBF1F07047FF
:100EF00004494843704700000010024000127A0085
:100F00006E3E000800093D002DE9F84F0446002C14
:100F10000ED02078D94DC0075ED06868C0F381003C
:100F200001280BD06868C0F38100022803D00CE0D0
:100F30000120BDE8F88F6868C00306D528688003E3
:100F40004AD56068A8BB0120F3E76068B0F5803F30
:100F500011D0A8B1B0F5A02F1BD0286820F48030A4
:100F60002860286820F480202860606830B3FFF78C
:100F7000ADFB06461EE0286840F480302860F4E7A8
:100F8000286820F480302860286820F480202860B9
:100F9000EBE7286840F480202860286840F480301F
:100FA0002860E2E7FFF792FB801B642802D9032048
:100FB000BFE711E028688003F4D50DE0FFF786FB5A
:100FC000064606E0FFF782FB801B642801D9032058
:100FD000AFE728688003F5D42078DFF8A482800783
:100FE0004FF0010A4FF0000945D5686810F00C0F6A
:100FF00007D06868C0F38100022812D16868C00376
:101000000FD42868800704D52069012801D0012069
:101010008FE72868616920F0F80040EAC100286085
:1010200029E02069B8B1C8F800A0FFF74FFB0646D9
:1010300006E0FFF74BFB801B022801D9032078E76D
:1010400028688007F5D52868616920F0F80040EA33
:10105000C10028600FE0C8F80090FFF737FB064694
:1010600006E0FFF733FB801B022801D9032060E76D
:1010700028688007F5D42078000726D58148A16923
:1010800099B1C0F800A0FFF721FB064606E0FFF784
:101090001DFB801B022801D903204AE7686A8007EC
:1010A000F5D5012001F004F90FE0C0F80090FFF73A
:1010B0000DFB064606E0FFF709FB801B022801D95D
:1010C000032036E7686A8007F5D42078400773D597
:1010D0000026E869C00008D4E86940F08050E86163
:1010E000E86900F0805000900126DFF89CB1DBF841
:1010F0000000C00514D4DBF8000040F48070CBF889
:101100000000FFF7E3FA074606E0FFF7DFFAC01B2F
:10111000642801D903200CE7DBF80000C005F4D5F2
:10112000E068012812D0B0B105281DD0286A20F04F
:1011300001002862286A20F004002862E06841F279
:10114000883B28B3FFF7C2FA07461DE0286A40F043
:1011500001002862F2E7286A20F001002862286A6C
:1011600020F004002862E9E7286A40F004002862C1
:10117000286A40F001002862E0E7FFF7A7FAC01BE9
:10118000584501D90320D4E6286A8007F5D50DE03B
:10119000FFF79CFA074606E0FFF798FAC01B584590
:1011A00001D90320C5E6286A8007F5D4012E03D1B2
:1011B000E86920F08050E861E069A0B36968C1F394
:1011C0008101022946D0022805D0C8F86090FFF7B7
:1011D0007DFA04463AE0C8F86090FFF777FA0646D1
:1011E00006E0FFF773FA801B022801D90320A0E66E
:1011F00028688001F5D4206AB0F5803F05D1686881
:10120000A16820F4003008436860D4E9080108436D
:10121000696821F4741108436860C8F860A0FFF79A
:1012200055FA044607E026E0FFF750FA001B0228B3
:1012300001D903207DE628688001F5D51BE0FFF782
:1012400045FA001B022801D9032072E628688001B4
:10125000F5D410E001280CD06868226A00F48031CF
:10126000914204D1616A00F47010884203D00120D9
:101270005FE601205DE600205BE600000010024012
:1012800000004242800442420070004070477047B4
:1012900070B590F83C20012A25D0012680F83C60EA
:1012A000022280F83D2002685468936824F070059B
:1012B0000C682C4354600D4C0268A24208D0B2F175
:1012C000804F05D00A4CA24202D00A4CA24204D15F
:1012D00023F080034968194391603C304670002137
:1012E0000170002070BD022070BD0000002C014084
:1012F000000400400008004010B50446002C03D054
:1013000094F83D0010B107E0012010BD002084F8E2
:101310003C00204600F016F8022084F83D00211D14
:10132000206801F02DF801203D3460726070A070DB
:10133000E07020716071A071E07120722070002057
:1013400010BD000000B585B000210191029103910C
:101350000491204A01682048914211D1816941F4E9
:1013600000618161806900F4006000900022052125
:101370001920FFF793FC1920FFF782FC05B000BD90
:10138000B1F1804F1CD0154A9142F7D1C16941F0AB
:101390000201C161C16901F002010091816941F05E
:1013A00004018161806900F00400009040200190F8
:1013B00002200290049001A90948FFF787F8DDE7B1
:1013C000C16941F00101C161C06900F001000090F4
:1013D000D4E70000002C014000100240000400404F
:1013E0000008014090F83D10012901D0012070470C
:1013F000022180F83D100168CA6842F00102CA600B
:1014000000680E49884208D0B0F1804F05D00C49E1
:10141000884202D00B49884209D1816801F0070156
:10142000062908D0016841F00101016003E001686C
:1014300041F001010160002070470000002C0140D4
:10144000000400400008004070B50446002594F8F0
:101450003C00012817D0012684F83C60022084F863
:101460003D002068826822F0770222F47F42826089
:101470000868502838D00DDC202853D005DC90B304
:10148000102811D14EE0022070BD30284AD04028EB
:101490000AD13DE0602831D070280CD0B0F5805FD3
:1014A00003D0B0F5005F12D001253C3466700020F7
:1014B0002070284670BDCB68D1E90121206800F07A
:1014C000A2FF2068816841F077018160EDE7CB6879
:1014D000D1E90121206800F096FF2068816841F47D
:1014E00080418160E1E71DE0CA684968206801F039
:1014F00053F85021206800F090FFD6E7CA68496889
:10150000206801F05AF86021206800F086FFCCE7DF
:10151000CA684968206801F03FF84021206800F05F
:101520007CFFC2E722680146104600F076FFBCE768
:10153000704770B50446206801694FF00005C94343
:10154000890716D4C168C943890712D4E91E01610D
:101550000120207720688069800703D02046FFF7AC
:10156000E7FF05E0204600F0BFF8204600F04FF905
:10157000257720680169C943490718D4C168C94360
:10158000490714D46FF0040101610220207720681C
:10159000806910F4407F03D02046FFF7C9FF05E0C3
:1015A000204600F0A1F8204600F031F925772068A8
:1015B0000169C943090717D4C168C943090713D48E
:1015C0006FF008010161042020772068C06980075E
:1015D00003D02046FFF7ACFF05E0204600F084F87A
:1015E000204600F014F9257720680169C943C9062F
:1015F00018D4C168C943C90614D46FF01001016141
:10160000082020772068C06910F4407F03D020466E
:10161000FFF78EFF05E0204600F066F8204600F058
:10162000F6F8257720680169C943C90708D1C16860
:10163000C943C90704D1891E0161204600F03EF963
:1016400020680169C943090609D4C168C94309066C
:1016500005D46FF0800101612046FFF717FE206876
:101660000169C943490609D4C168C943490605D47B
:101670006FF040010161204600F042F920680169E5
:10168000C94389060BD4C168C943890607D46FF0E2
:10169000200101612046BDE87040FFF7F8BD70BD34
:1016A00000B585B000210191029103910491006879
:1016B000B0F1804F11D10A48816941F00401816184
:1016C000806900F004000090062001900220029042
:1016D000049001A90348FEF7F9FE05B000BD000023
:1016E0000010024000080140704770B504460D46E6
:1016F000002694F83C0001280FD0012084F83C001B
:101700006AB1042A1FD0082A32D00C2A44D00126FC
:10171000002084F83C00304670BD022070BD294690
:10172000206800F083FE2068816941F00801816132
:101730002068816921F004018161206881692A693A
:1017400011438161E4E72946206800F09FFE20688C
:10175000816941F4006181612068816921F48061BF
:101760008161206881692A6941EA02218161CFE7AC
:101770002946206800F0BCFE2068C16941F00801DC
:10178000C1612068C16921F00401C1612068C1699B
:101790002A691143C161BBE72946206800F0D8FEE1
:1017A0002068C16941F40061C1612068C16921F408
:1017B0008061C1612068C1692A6941EA0221C16171
:1017C000A6E710B50446002C03D094F83D0010B1F4
:1017D00007E0012010BD002084F83C00204600F006
:1017E00015F8022084F83D00211D206800F0C8FD96
:1017F00001203D3460726070A070E07020716071F3
:10180000A071E07120722070002010BD70477047F9
:1018100010B50446002909D004290AD008290BD0A4
:1018200094F8410001280AD0012010BD94F83E0030
:10183000F8E794F83F00F5E794F84000F2E702205B
:1018400039B3042928D0082929D084F8410001227D
:10185000206800F0CBFD16492068884203D1426C15
:1018600042F4004242642068884208D0B0F1804FC0
:1018700005D01049884202D00F49884212D18168B0
:1018800001F00701062911D0016841F00101016052
:101890000CE084F83E00DAE784F83F00D7E784F8EC
:1018A0004000D4E7016841F001010160002010BD53
:1018B000002C0140000400400008004001680D4871
:1018C000814211D10C4A5078401CC0B2507003289C
:1018D00004D10020507010781430107092F900007C
:1018E000282801DDD82010700448814201D1FFF77B
:1018F0003DB97047002C0140000000200008004066
:101900007047FEE701684A69D24352050FD46FF46D
:1019100080624A61002140F8301F202242738173A7
:10192000026942F004020261017301207047002045
:1019300070470000F8B504460D4617461E46E06A9B
:10194000082808D0012806D010F5803F03D0206B6E
:10195000122806D00AE02068016841F48071016015
:1019600004E02068016841F4807101603B46002278
:101970004FF001112046009600F0C2F840B12068F7
:101980000068C00502D54FF4007020640320F8BD44
:101990002069B0F5804F0FD005F44070F02141EA86
:1019A000D0102168086133463A460D49204600F0C0
:1019B000FDF830B10120F8BD216805F0FE00086196
:1019C00002E02168E8B20861054933463A46891FBA
:1019D000204600F0EBF808B10120F8BD0020F8BD6A
:1019E000080001002DE9F8430446DDE908970D469B
:1019F000164698462068016841F4807101604B46A4
:101A000000224FF001112046009700F079F848B10C
:101A100020680068C00502D54FF4007020640320E0
:101A2000BDE8F883216805F0FE0008613B464A46A0
:101A30001C49204600F0BAF808B10120F0E7206800
:101A40004169806900903A464946204600F012F903
:101A500048B1206C042804D12068016841F4007169
:101A600001600120DCE7F5B2B8F1010F0CD021686C
:101A7000300A08613A464946204600F0FBF868B152
:101A8000206C042803D007E02068056108E0206886
:101A9000016841F4007101600120C1E7206805611F
:101AA0000020BDE70200010070B504460D46164651
:101AB0001FE02046FFF726FF08B1012070BD681C1B
:101AC00017D0FEF703FE801BA84200D88DB920680E
:101AD0004069C04340070CD5002044F8300F202156
:101AE0006173A073216941F02001216120730120FD
:101AF00070BD20684069C0434007DAD4002070BD43
:101B00002DE9F0470446DDF820900D4690461E462C
:101B1000C5F307472FE0701C2DD0FEF7D7FDA0EBD3
:101B20000900B04200D836BB012F17D02068806969
:101B300025EA00000004000C1BD0002040451AD10B
:101B4000002044F8300F20216173A073216941F017
:101B50002001216120730120BDE8F08720684069E1
:101B600025EA00000004000C01D00020E6E7012077
:101B7000E4E70120E2E7012F0BD02068806925EA25
:101B800000000004000C0FD000204045C3D000200E
:101B9000E2E72068406925EA00000004000C01D05B
:101BA0000020F2E70120F0E70120EEE72DE9F04701
:101BB00004460D46164698464FF000094FF0200A9D
:101BC000C5F3074743E020684069C043400517D488
:101BD0002068016841F40071016021686FF4806041
:101BE0004861C4F8309084F83DA084F83E90206CA1
:101BF00040F00400206484F83C900120BDE8F087A8
:101C0000701C24D0FEF762FDA0EB0800B04200D8A3
:101C1000EEB9012F14D02068806925EA0000000485
:101C2000000C14D0C4F8309084F83DA084F83E90A5
:101C3000206C40F02000206484F83C900120DDE717
:101C40002068406925EA00000004000CEAD1012F59
:101C500008D02068806925EA00000004000CB2D199
:101C60000020CBE72068406925EA00000004000C52
:101C7000F6D0A8E770B504460D4616461FE020468C
:101C8000FFF740FE08B1012070BD681C17D0FEF7B9
:101C90001DFD801BA84200D88DB920684069C04353
:101CA00000060CD5002044F8300F20216173A0738A
:101CB000216941F0200121612073012070BD20685D
:101CC0004069C0430006DAD4002070BD00F0DDB9E1
:101CD00000F0F0B900F031BA70B50B4D4FF400547C
:101CE000002221462846FEF7E9FC4FF4FA763046FA
:101CF000FEF7DAFB012221462846FEF7DFFC3046DC
:101D0000BDE87040FEF7D0BB001001407CB5114A21
:101D10000021114800F0CAFC104948600025182431
:101D20002B4680220EA11148CDE9004501F06AFE44
:101D3000002380220EA11148CDE9004501F062FE8A
:101D4000002380220EA11148CDE9004501F05AFE82
:101D50007CBD0000483E0008D52200080400002099
:101D600042757A7A65725F5461736B009D04000856
:101D70004D6F746F725F5461736B000079200008BF
:101D80004F4C45445F5461736B0000001122000802
:101D90002DE9F04385B00024019402940394049447
:101DA0002C48816941F010018161816901F01001C5
:101DB0000091816941F020018161816901F0200178
:101DC0000091816941F004018161816901F00401A0
:101DD0000091816941F008018161806900F008008B
:101DE000009001221C4F550329463846FEF766FC39
:101DF000DFF86880012211464046FEF75FFC0022B2
:101E0000B0214046FEF75AFCDFF854900022012131
:101E10004846FEF753FC01950125029503940226DE
:101E2000049601A93846FEF751FBB12001900295B6
:101E30000394049601A94046FEF748FB01950295DC
:101E40000394049601A94846FEF740FB05B0BDE89F
:101E5000F083000000100240001001400008014023
:101E6000000C014010B50D480B4901600C49416060
:101E700000218160C1604FF4804202614161816153
:101E8000C1610162FEF728FC002803D0BDE81040C4
:101E9000FEF708BB10BD0000005400409C0000206D
:101EA000A086010010B586B0002402940394049427
:101EB00005940094019415481349016041F61F41AF
:101EC0004160846042F20F71C160046144618461C9
:101ED000FFF712FA08B1FEF7E5FA4FF480500290CE
:101EE00002A90A48FFF7B0FA08B1FEF7DBFA00943E
:101EF000019469460548FFF7CBF9002801D0FEF7A9
:101F0000D1FA06B010BD0000002C0140F000002006
:101F100010B58EB000240A940B940C940D94089480
:101F200009941C2101A8FEF7E8F922484FF08041EE
:101F300001602321416084606321C16004618021CC
:101F40008161FFF7D9F908B1FEF7ACFA4FF4805080
:101F50000A900AA91748FFF777FA08B1FEF7A2FA24
:101F60001448FFF72EFC08B1FEF79CFA0894099478
:101F700008A91048FFF78CF908B1FEF793FA602022
:101F80000190029403940594042201A90948FFF7E3
:101F9000ACFB08B1FEF786FA082201A90548FFF755
:101FA000A4FB08B1FEF77EFA0248FFF779FB0EB0FA
:101FB00010BD00003801002010B586B00024029446
:101FC0000394049405940094019414481249016008
:101FD00044F61F61416084604721C1600461802133
:101FE0008161FFF789F908B1FEF75CFA4FF4805080
:101FF000029002A90948FFF727FA08B1FEF752FA42
:102000000094019469460548FFF742F9002801D081
:10201000FEF748FA06B010BD000400408001002021
:10202000FEE7000070B50446114E124D002C0CDB8B
:10203000012210213046FEF741FB002220213046CC
:10204000FEF73CFB2868C4630CE0002210213046F8
:10205000FEF734FB012220213046FEF72FFB2968D2
:102060006042C863BDE8704008210248FFF7D0BB5A
:102070000008014038010020024C94F90000FFF7ED
:10208000D1FFFAE700000020FEE710B5A0B0002461
:1020900080216846FEF731F90021204600F0AEF8B5
:1020A0008021684600F0F4F8641CE4B2082CF3D3F5
:1020B00020B010BD2DE9F04188B007460024002370
:1020C00004AE002A08DA4FF02D004FF001048DF81D
:1020D0001000C2F1000206E005D14FF030004FF0D1
:1020E00001048DF81000EC464FF00A000CE092FB62
:1020F000F0F500FB1525984605F1300503F10103C5
:102100000CF8085092FBF0F2002AF0D109E00CEB39
:10211000030010F8012C204604F101043254A3F10D
:102120000103002BF3D11846305504AA384600F0BD
:1021300004F808B02046BDE8F0812DE9F0410446DE
:102140000E46174600250BE03146204600F00EF8FB
:10215000641CE4B20F2C02D90024B61CF6B26D1C2C
:102160007A5D002AF0D12846BDE8F08170B51546A9
:102170000C46C206160E072918D80F2816D8314665
:10218000204600F03BF80A48082100EB0510054600
:1021900000F07EF8641CE0B2314600F02FF805F143
:1021A0000800BDE87040082100F072B870BD000062
:1021B000963E000810B504460848007802280CD165
:1021C0007F2C0AD804F00F0000F04EF8102000EB2E
:1021D0001410BDE8104000F047B810BD9400002076
:1021E00005490978022905D1072803D8B030C0B2C3
:1021F00000F03AB8704700009400002010B50C467B
:10220000FFF7EEFF2046BDE81040FFF7D3BF000008
:10221000FFF75CFD0D4C0E4D4FF47A76207820B917
:1022200000210CA20846FFF755FD00210CA208462C
:10223000FFF750FDC0B2287094F900200021FFF78D
:1022400047FD304601F02EF8E8E7000000000020CE
:102250000400002053706565643A202020000000CF
:1022600053706565643A00001CB500218DF80410B8
:102270008DF805004FF4FA7000900448022301AA7B
:1022800078214068FEF7F4FA1CBD0000940000209D
:102290000EB54FF4FA728DE807000448012340227E
:1022A00078214068FEF788FB0EBD000094000020F6
:1022B00008B507494FF4FA520968B1FBF2F14143FE
:1022C000009100BF0098411E0091FAD208BD0000A5
:1022D00018000020FFF700FDFCE7000010B55020BB
:1022E00080F31188BFF34F8FBFF36F8F01F0FEFBB8
:1022F00018B104494FF080500860002080F3118825
:1023000010BD000004ED00E030B58FB0282105A815
:10231000FDF7F3FF14216846FDF7EFFF012105915A
:102320000804069000240794099102250C950D904D
:102330004FF4E0100E9005A8FEF7E6FD08B1FEF799
:10234000B1F80F200090019502944FF48060039043
:10235000049402216846FEF7D3FC002801D0FEF762
:10236000A1F80FB030BD70470148FFF7E2B8000098
:10237000F00000200148FFF7DCB80000C801002091
:10238000F0B50268164C174D174E4FF08047A0422B
:1023900005D0B84203D0A84201D0B04203D122F008
:1023A00070034A681A43A04205D0B84203D0A8423D
:1023B00001D0B04203D122F44073CA681A434B697A
:1023C00022F080021A4302608A68C2620A6882624E
:1023D000A04201D10969016301214161F0BD000002
:1023E000002C0140000400400008004010B501F03E
:1023F0001F0101238B40046A9C430462036A8A40E4
:102400001343036210BD10B5846824F47F4442EA8C
:1024100003220A432243826010BD826822F07002C8
:102420000A4342F0070181607047000030B5026A3C
:10243000036A23F0010303624368846924F0700493
:1024400024F003050C682C4322F002058A682A4315
:102450000D4DA84206D122F00802CD6845EA0205DA
:1024600025F0040209D123F4807323F400734D692D
:1024700045EA03058B6943EA0503436084614968C3
:102480004163026230BD0000002C014030B5036A98
:10249000026A22F0100202624268846924F4E04475
:1024A00024F440740D6844EA052423F020038D6869
:1024B00043EA05130D4DA84206D123F08003CD68F1
:1024C00043EA051323F0400309D122F4806222F489
:1024D00000624D6942EA85028D6942EA85024260E6
:1024E000846149688163036230BD0000002C0140B3
:1024F00030B5026A036A23F4807303624368C469D7
:1025000024F0700424F003050C682C4322F40072BC
:102510008D6842EA05220D4DA84206D122F40062E0
:10252000CD6842EA052222F4806209D123F4805367
:1025300023F400534D6943EA05138D6943EA0513FB
:102540004360C4614968C163026230BD002C014030
:1025500030B5036A026A22F4805202624268C4699A
:1025600024F4E04424F440740D6844EA052423F480
:1025700000538D6843EA0533064DA84204D122F486
:1025800080424D6942EA85124260C4614968016433
:10259000036230BD002C014010B5036A046A24F0C8
:1025A00001040462846924F0F00444EA021423F074
:1025B0000A020A438461026210BD10B5036A046A0C
:1025C00024F010040462846924F4704444EA023262
:1025D00023F0A00343EA01118261016210BDFEE70E
:1025E0000907090E002804DB00F1E02080F8001440
:1025F000704700F00F0000F1E02080F8141D7047D4
:10260000FEF7BCFAFFF780FEFFF7C2FBFFF72AFCDC
:10261000FFF77EFCFFF746FCFFF7CEFC0448FEF711
:10262000E1FE00F007F8FFF771FB00F01FF8FEE78E
:10263000F0000020EFF30580002809D1EFF31080AF
:1026400030B9094A1068022805D1EFF3118111B1A0
:102650006FF00500704710B14FF0FF307047012058
:1026600010600020704700006C00002010B5EFF3F0
:102670000580002809D1EFF3108030B90A4A1068AC
:10268000022805D1EFF3118111B16FF0050010BDE3
:10269000012802D04FF0FF3010BD0220106000F082
:1026A0006FFE002010BD00006C0000202DE9F043FB
:1026B00085B00B464FF00008CDF80C80EFF3058194
:1026C000B9BBEFF31081A1BB2E490968022902D1E1
:1026D000EFF3118169BB60B380261824CDF8108018
:1026E00004AD4FF0FF3172B3176807B13D469769EB
:1026F00007B13C46671E382F02D21779FF0703D077
:10270000002005B0BDE8F083576907B1BE08D2F8D4
:1027100008C0BCF1000F0DD0D2F80C90B9F15C0FDD
:1027200008D3D2F81090B9F1000F03D017B10121EE
:102730000BE024E0BCF1000F07D1D7682FB917696F
:102740001FB9002101E0FFE70021012901D059B1A3
:1027500015E0916812690291CDE90042324629469E
:1027600001F082F903900AE003A9CDE90041B2B279
:10277000294601F047F9012801D0CDF80C800398D3
:10278000BFE700006C0000202DE9F04104460F4631
:10279000134E75693068001D00F052FC601C07D1B3
:1027A00037B13168BDE8F041091D0E4800F098BC12
:1027B0002C4430684460AC4206D23168B068091DD0
:1027C000BDE8F04100F074BC31687068091D00F08C
:1027D0006FFC306B844200D23463BDE8F0810000AE
:1027E0001C0000200007002070B5044600F084FCA7
:1027F0001C4D2869401C2861286810B1E86938B16F
:102800000CE02C602869012808D100F091F905E05E
:102810002868E16AC06A884200D82C60E86A401CD7
:10282000E8626064E06AA969884200D9A8610E493B
:1028300000EB800001EB8000211D00F051FC00F056
:102840007BFCE86900280CD02868E16AC06A8842ED
:1028500007D206494FF080500860BFF34F8FBFF397
:102860006F8F70BD1C0000205002002004ED00E0BE
:1028700038B500F041FC104CA068C8B90F4800F012
:1028800009FC0E48143000F005FC0C4820601430A0
:1028900060600A4B00202833009003F150021021A1
:1028A0000A2000F045FEA06010B105A100F0C4FCB4
:1028B000BDE8384000F040BC58000020140700205C
:1028C000546D72510000000070B50C4D0C4E11E0BB
:1028D00000F012FCF068C468201D00F0B1FB28690C
:1028E000401E2861E868401EE86000F025FC204694
:1028F00000F053F8E8680028EAD170BD1C00002001
:10290000EC06002030B40B46026C002A0CD0C168E3
:102910001144C1604468A14201D30168C160C1682B
:1029200030BC1846FDF79CBC30BC70472DE9F04127
:10293000044617460026A56B226C002A10D0C7B1AA
:10294000E068FDF78DFCE168206C091AE1602268FF
:10295000914202D26168081AE060022F16D017E097
:102960002068A8B9606801F027F906460020606079
:102970000EE0A068FDF774FC216CA0680844A0601C
:102980006168884204D32068A06001E005B16D1E33
:102990006D1CA5633046BDE8F08110B5044694F87F
:1029A000590000280BD0012811D0022814D0502043
:1029B00080F31188BFF34F8FBFF36F8FFEE7206B5B
:1029C00000F0D0FB2046BDE8104000F0CBBB204615
:1029D000BDE8104000F0C6BB10BD000007490A6802
:1029E0001168002904D00021016019B1002070474E
:1029F0000121F9E7D0680068704700005800002006
:102A00004FF440610F48420706D0C01D20F0070078
:102A10000C49411AC1F540610B4A10600023536014
:102A20000144083921F00701103A11604B600B6036
:102A30000B1A436001604068906050604FF00040A6
:102A4000D0607047E40E002080000020074E4FF059
:102A50008054074DFFF738FF30680128FAD92C6001
:102A6000BFF34F8FBFF36F8FF4E7000050020020D9
:102A700004ED00E070B51D46049C002909D02260D9
:102A8000E06321640121204600F088FD84F84C5069
:102A900070BD2460F4E72DE9F0478146DDE9085870
:102AA0000A9C0E4617469A46B900A522206BFDF7F0
:102AB0001CFC206B7F1E00EB870020F007077807C7
:102AC00007D0502080F31188BFF34F8FBFF36F8F73
:102AD000FEE700202218315C82F83410315C11B11D
:102AE000401C1028F6D3002684F84360382D00D30C
:102AF0003725E562E5642665201D00F0D6FA04F16D
:102B0000180000F0D2FA2461C5F13800A0616462B7
:102B1000666584F8586052464946384600F082FAA5
:102B20002060B8F1000F01D0C8F80040BDE8F08780
:102B300070B50024114D04EB840005EB800000F01B
:102B4000A9FA641C382CF6D30D4800F0A3FA0C48FF
:102B5000143000F09FFA0A48283000F09BFA084829
:102B60003C3000F097FA0648503000F093FA0548E0
:102B7000034941601431816070BD000050020020A3
:102B8000B00600201C00002030B5134900E01146BB
:102B90000A688242FBD34B685C18844203D14068C8
:102BA0001844486008460D6844682318AB420DD1AC
:102BB000094B103B1B689A4206D05268224442607F
:102BC0000A681268026002E0036000E0026081426D
:102BD00000D0086030BD00008000002070B50024E7
:102BE000416000610C4D91420AD8D11A826991422C
:102BF00001D301240EE0011D686800F059FA09E0D4
:102C00009A4203D2994201D3012403E0011D2868AE
:102C100000F04EFA204670BD5800002010B5044662
:102C200000F06AFAA06B20B1002400F085FA20467B
:102C300010BD0124F9E710B5044600F05DFAA06B61
:102C4000E16B884201D1012400E0002400F074FA15
:102C5000204610BDF8B505460E4614480068C06809
:102C6000C468201D00F0ECF9E069012810D1A069CA
:102C70002B46411932462046FFF7B0FF40B10020F5
:102C80000346014600902A46204601F0A7F828B1E5
:102C9000616A01B02046BDE8F0400847502080F34B
:102CA0001188BFF34F8FBFF36F8FFEE758000020EE
:102CB00030B587B0304D55E00398002803DADDE9E0
:102CC000042006999047039800284BDB059C606917
:102CD00010B1201D00F0B4F902A800F097F80246E8
:102CE00003980A283ED2DFE800F00505053D2637A7
:102CF00005053D260498A169034601442046FFF7D7
:102D00006DFF00B3616A20468847E069012829D138
:102D1000002000900498A16900234218194620461B
:102D200001F05CF878B9502080F31188BFF34F8F21
:102D3000BFF36F8FFEE70498A06128B18118134696
:102D40002046FFF74BFF0DE0502080F31188BFF3C2
:102D50004F8FBFF36F8FFEE794F82C0010B9204619
:102D600000F000FA002203A9A86800F06FFD002817
:102D7000A2D107B030BD000058000020F8B50646CB
:102D80000D4600F045FB684600F040F80446009808
:102D900010B100F08BFFF8BD45B9A64206D800F08F
:102DA00085FF21463046FFF755FFF8BD0C481DB1A1
:102DB0004168096891B10025311B2A46806800F0FE
:102DC0004DFA00F073FF0028EFD106494FF0805014
:102DD0000860BFF34F8FBFF36F8FF8BD0125EBE79E
:102DE0005800002004ED00E0074841680968002908
:102DF00005D04168C968C9684968016370474FF0E8
:102E0000FF310163704700001C00002070B50546CB
:102E100000F066FE0446074E3069844204D200F09A
:102E20000BF80120286001E0002028603461204672
:102E300070BD000058000020F8B5194E1FE0C068B2
:102E40000568C468201D00F0FBF8616A20468847C9
:102E5000E069012813D1A0692844A84206D960601E
:102E60002461211D306800F023F908E000200346AA
:102E7000014600902A46204600F0B0FF40B130687D
:102E800001680029DBD13068716831607060F8BD7D
:102E9000502080F31188BFF34F8FBFF36F8FFEE791
:102EA0005800002009484068401C07D0502080F39B
:102EB0001188BFF34F8FBFF36F8FFEE7502080F371
:102EC0001188BFF34F8FBFF36F8FFEE7880000209C
:102ED00008B56846FFF782FD0099FFF74FFFFFF73F
:102EE000E7FEF6E72DE9F041044600F005F994F914
:102EF000455004F1240609E0606A48B1304600F00C
:102F000099FE08B100F0FEF96D1E6DB2002DF3DCE4
:102F10004FF0FF3684F8456000F00EF900F0ECF851
:102F200094F9445004F1100709E0206948B138468B
:102F300000F080FE08B100F0E5F96D1E6DB2002DC5
:102F4000F3DC84F84460BDE8F04100F0F5B800001F
:102F50002DE9F0410546002600F05AFA304F386856
:102F600008B9FFF74DFDF86805424AD18DB1083523
:102F700068070ED005F00700C0F108000544680797
:102F800007D0502080F31188BFF34F8FBFF36F8FAE
:102F9000FEE7B5B37868854233D821491031084639
:102FA000046801E0214604466068A84202D2206815
:102FB0000028F7D13868844223D00E68083620688C
:102FC00008606068411B10290ED96019420707D0BC
:102FD000502080F31188BFF34F8FBFF36F8FFEE750
:102FE00041606560FFF7D0FD61687868401A7860DD
:102FF000BA68904200D2B860F8680143616000206E
:10300000206000F053FE700707D0502080F3118835
:10301000BFF34F8FBFF36F8FFEE73046BDE8F081FF
:103020007000002020384FF08073C36121F001014F
:1030300081610249416140F820297047A52E0008AE
:103040000169D0E901329A60D0E901235A604A68E7
:10305000824201D182684A60002202610868401EF3
:103060000860086870470000034B036003F15C00D0
:1030700008608020106070472C080020044B03601B
:1030800003F15C0008604FF480701060704700002E
:10309000880A002000F1080141604FF0FF32826091
:1030A000C16001610021016070470021016170472A
:1030B00030B50C68621C02D000F1080202E002691F
:1030C00004E01A4653681D68A542FAD953684B605C
:1030D00099608A60516008610168491C016030BDD7
:1030E00042684A6093688B60936859609160086198
:1030F0000168491C01607047502080F31188BFF3BC
:103100004F8FBFF36F8F0A494868401C4860012801
:103110000CD10848006810F0FF0F07D0502080F352
:103120001188BFF34F8FBFF36F8FFEE7704700002A
:103130008800002004ED00E009494868002806D016
:10314000401E4860002801D180F31188704750204C
:1031500080F31188BFF34F8FBFF36F8FFEE700003E
:103160008800002070B5002827D008380446134D89
:103170006068E968084207D1502080F31188BFF3E6
:103180004F8FBFF36F8FFEE722683AB1502080F374
:103190001188BFF34F8FBFF36F8FFEE788436060E6
:1031A00000F036F960686968084468602046FFF7F7
:1031B000EBFCBDE8704000F079BD70BD70000020F0
:1031C0004FF0E02000210161816105494FF47A72DE
:1031D0000968B1FBF2F1491E4161072101617047A5
:1031E0001800002010B5FDF717F8114910280ED36C
:1031F00000F1E02090F8F0030A78904207D25020C6
:1032000080F31188BFF34F8FBFF36F8FFEE709483C
:103210000068896800F4E060884207D9502080F394
:103220001188BFF34F8FBFF36F8FFEE710BD000013
:10323000880000200CED00E010B50022064B53F88A
:1032400032401CB1521C082AF9D310BD43F8321089
:1032500003EBC201486010BD1002002070B50446A7
:103260000D461646FFF748FF94F944304FF0000032
:103270005B1C01D184F8440094F94510491C01D12C
:1032800084F84500FFF758FFA06B28B9324629465D
:1032900004F1240000F056F82046BDE87040FFF726
:1032A00021BE000010B502460020002A12D00F48AF
:1032B000806B38B1502080F31188BFF34F8FBFF37C
:1032C0006F8FFEE700F0A4F800211046FFF75CFACC
:1032D00000F0ECFC002807D105494FF08050086051
:1032E000BFF34F8FBFF36F8F10BD00001C00002095
:1032F00004ED00E002498A6A026049694160704752
:103300001C00002001490120486270471C00002079
:1033100010B50C4600280AD0094909681831FFF792
:10332000C7FE2046BDE810400121FFF72DBA50200E
:1033300080F31188BFF34F8FBFF36F8FFEE700005C
:103340001C00002070B50D46144600280DD00B4916
:1033500009681831FFF7C4FE0CB14FF0FF35214664
:103360002846BDE87040FFF70FBA502080F311885F
:10337000BFF34F8FBFF36F8FFEE700001C000020EC
:1033800030B587B000250695059504AA05A906A8BD
:10339000FFF76AFEDDE90510CDE900510290002338
:1033A00017A11948049A00F05FFB184C606308B13C
:1033B000012000E00020012801D100F0DBFC012801
:1033C00009D0401C19D1502080F31188BFF34F8FD2
:1033D000BFF36F8FFEE7502080F31188BFF34F8F4C
:1033E000BFF36F8F4FF0FF3020630120E061656114
:1033F00007B0BDE8304000F047B807B030BD00006E
:1034000049444C45000000004D2A00081C000020E3
:103410000248816B491C8163704700001C0000203A
:1034200010B5174B986B002802D00120586210BDD0
:10343000002058629869134901E0C0B1401E00EBBA
:10344000800251F82220002AF7D000EB800201EB25
:1034500082014A6852684A6001F10804A24201D11F
:1034600052684A604968C9681960986110BD502067
:1034700080F31188BFF34F8FBFF36F8FFEE700001B
:103480001C000020500200201CB52649087801903D
:10349000FF200870087800909DF800009DF800203B
:1034A00000F0F000904207D0502080F31188BFF365
:1034B0004F8FBFF36F8FFEE79DF800001A4B00F0AF
:1034C000500018700720986006E09868401E9860C9
:1034D0009DF80000400000909DF800000006F4D424
:1034E0009868032807D0502080F31188BFF34F8FCE
:1034F000BFF36F8FFEE74FF440709860019808703B
:103500000A48016841F470010160016841F07041AE
:103510000160FFF755FE00205860FCF747FE0020D1
:103520001CBD000000E400E08800002020ED00E069
:1035300038B5049D002804D05BB102B189B1C2B195
:1035400020E0502080F31188BFF34F8FBFF36F8FBF
:10355000FEE7502080F31188BFF34F8FBFF36F8FCA
:10356000FEE7502080F31188BFF34F8FBFF36F8FBA
:10357000FEE739B1502080F31188BFF34F8FBFF3BE
:103580006F8FFEE7502400941C46012384F84630D8
:103590002B460094FFF76EFA204638BD70B50446FE
:1035A0000D46002C25D0FFF7A7FDD4E90F20216898
:1035B00002FB001161600021A1632168A160E06B42
:1035C0002268216C401E00FB0121E1604FF0FF30BA
:1035D00084F8440084F8450004F110008DB1FFF731
:1035E00059FD04F12400FFF755FDFFF7A5FD01206B
:1035F00070BD502080F31188BFF34F8FBFF36F8FE2
:10360000FEE721690029F0D000F014FB0028ECD07F
:1036100004494FF080500860BFF34F8FBFF36F8FA6
:10362000E3E7000004ED00E02DE9FF4782B0044627
:103630008A461E460025002C03D0BAF1000F08D0A0
:1036400011E0502080F31188BFF34F8FBFF36F8FCD
:10365000FEE7206C38B1502080F31188BFF34F8F04
:10366000BFF36F8FFEE7022E0AD1E06B012807D06F
:10367000502080F31188BFF34F8FBFF36F8FFEE7A9
:1036800000F020FA48B9049838B1502080F311882E
:10369000BFF34F8FBFF36F8FFEE74FF000094FF07E
:1036A0008057DFF8E480FFF727FDA06BE16B8842CD
:1036B00005D3022E03D0049808B325B327E0324681
:1036C00051462046FFF732F9616A59B104F12400EE
:1036D00000F0B0FA68B1C8F80070BFF34F8FBFF3C5
:1036E0006F8F06E028B1C8F80070BFF34F8FBFF3AB
:1036F0006F8FFFF721FD012006B0BDE8F087FFF7CF
:103700001BFD0020F8E76846FFF7F4FD0125FFF7F1
:1037100013FDFFF77DFEFFF7EFFC94F94400401C1A
:1037200001D184F8449094F94500401C01D184F8FB
:103730004590FFF701FD04A9684600F025F930B176
:103740002046FFF7CFFB00F0B1FA0020D4E7204677
:10375000FFF771FA90B104F110000499FFF7D8FD5A
:103760002046FFF7BFFB00F0A1FA00289BD1C8F864
:103770000070BFF34F8FBFF36F8F94E72046FFF7C2
:10378000B1FB00F093FA8EE704ED00E02DE9F0477D
:103790000446894690461F46002C03D0B9F1000F1D
:1037A00008D011E0502080F31188BFF34F8FBFF392
:1037B0006F8FFEE7206C38B1502080F31188BFF383
:1037C0004F8FBFF36F8FFEE7022F0AD1E06B012806
:1037D00007D0502080F31188BFF34F8FBFF36F8F56
:1037E000FEE7FFF7FFFC5020EFF3118680F311880E
:1037F000BFF34F8FBFF36F8FA06BE16B884206D38F
:10380000022F04D0002086F31188BDE8F08794F9D8
:1038100045503A4649462046FFF788F8681C04D0D0
:103820006D1C84F845500120EDE7606A0028FAD04D
:1038300004F1240000F0FEF90028F4D0B8F1000FE4
:10384000F1D00120C8F80000EDE700002DE9F747AE
:1038500083B004468A460026002C03D0BAF1000F3C
:1038600008D011E0502080F31188BFF34F8FBFF3D1
:103870006F8FFEE7206C38B1502080F31188BFF3C2
:103880004F8FBFF36F8FFEE700F01CF948B9059822
:1038900038B1502080F31188BFF34F8FBFF36F8F83
:1038A000FEE700274FF08058DFF8D890FFF724FCA0
:1038B000A56BC5B151462046FFF724F86D1EA563E0
:1038C000206950B104F1100000F0B4F928B1C9F832
:1038D0000080BFF34F8FBFF36F8FFFF72DFC0120E8
:1038E00006B0BDE8F087059808B126B107E0FFF7FC
:1038F00023FC0020F4E701A8FFF7FCFC0126FFF7FA
:103900001BFCFFF785FDFFF7F7FB94F94400401C13
:1039100001D184F8447094F94500401C01D184F829
:103920004570FFF709FC05A901A800F02DF858B172
:103930002046FFF7D7FA00F0B9F92046FFF76EF9F5
:103940000028B3D00020CBE72046FFF767F990B1FD
:1039500004F124000599FFF7DBFC2046FFF7C2FACB
:1039600000F0A4F90028A1D1C9F80080BFF34F8F5F
:10397000BFF36F8F9AE72046FFF7B4FA00F096F98D
:1039800094E7000004ED00E02DE9F04105460C4607
:10399000002D11D0C4B1FFF7AFFB194E70696B68F1
:1039A000C11A2268571C17D02F68B66AB74215D0C3
:1039B000834213D801241DE0502080F31188BFF307
:1039C0004F8FBFF36F8FFEE7502080F31188BFF356
:1039D0004F8FBFF36F8FFEE700240BE08A4206D9BA
:1039E000501A20602846FFF785FC002402E00020E2
:1039F00020600124FFF7A0FB2046BDE8F081000015
:103A00001C0000202DE9FF5F8146DDE90E788A4623
:103A100016469B46B000FFF79BFA054628000AD0E1
:103A20005C20FFF795FA04460CB1256304E02846B4
:103A3000FFF798FB00E000249CB1002084F85900B7
:103A4000CDE90240CDE900785B4632465146484612
:103A5000FFF721F82046FEF7C7FE012004B0BDE8BD
:103A6000F09F4FF0FF30F9E7F0B585B00746DDE98C
:103A70000A600C9C002815D0E4B15C2503952063F6
:103A8000022084F85900002004ADCDE90240CDE9C0
:103A900000653846FEF7FFFF2046FEF7A5FE0498B6
:103AA00005B0F0BD502080F31188BFF34F8FBFF3F6
:103AB0006F8FFEE7502080F31188BFF34F8FBFF365
:103AC0006F8FFEE70548C169002903D0806B18B1EC
:103AD0000020704701207047022070471C00002022
:103AE00001484069704700001C0000202DE9F041AA
:103AF00000262F4FB86B002808D0386A401C386267
:103B0000786A00B101263046BDE8F0817D696D1C00
:103B10007D619DB97868006838B1502080F31188C4
:103B2000BFF34F8FBFF36F8FFEE77868B968796096
:103B3000B860B86A401CB862FFF756F9386BDFF816
:103B4000748085420DD37868006838B17868C068A1
:103B5000C468606885420ED2386302E04FF0FF30DF
:103B600038633868C06A00EB800058F820000128EC
:103B7000C6D90126C4E7201DFFF762FAA06A18B172
:103B800004F11800FFF75CFAE06AB969884200D9CD
:103B9000B86100EB800008EB8000211DFFF7A0FA60
:103BA000E06A3968C96A8842CDD30126CBE70000B4
:103BB0001C0000205002002070B504460020002C9C
:103BC0002BD01A4D29688C4207D0502080F31188E1
:103BD000BFF34F8FBFF36F8FFEE7216DF1B1491E29
:103BE0002165E36CE26A9A4217D0002915D1201DA5
:103BF000FFF726FAE06CE062C0F13800A061E06AED
:103C0000A969884200D9A861094900EB800001EB4D
:103C10008000211DFFF764FA012070BD502080F361
:103C20001188BFF34F8FBFF36F8FFEE71C0000209A
:103C30005002002070B5C068C468002C14D004F194
:103C400018000646FFF7FCF9154DAA6BA2B13146E4
:103C50001448FFF745FAE06A2968C96A88421CD906
:103C600001200121696270BD502080F31188BFF3EB
:103C70004F8FBFF36F8FFEE7201DFFF7E1F9E06A7A
:103C8000A969884200D9A861074900EB800001EBCF
:103C90008000211DFFF724FADDE7002070BD000041
:103CA0001C000020D8060020500200202DE9F04121
:103CB000002400272B4DA86B002807D0FFF71CFA23
:103CC000A86B401EA863A86B40B146E0502080F36B
:103CD0001188BFF34F8FBFF36F8FFEE72869E0B302
:103CE000DFF8848001261CE0D8F80C00C46804F1D9
:103CF0001800FFF7A5F9201DFFF7A2F9E06AA969EE
:103D0000884200D9A861194900EB800001EB8000CE
:103D1000211DFFF7E5F9E06A2968C96A884200D3E6
:103D20006E62D8F800000028DED10CB1FFF75CF815
:103D30002C6A44B1FFF7DAFE00B16E62641E002CFB
:103D4000F8D100202862686A38B10127084938078D
:103D50000860BFF34F8FBFF36F8FFFF7EDF9384661
:103D6000BDE8F0811C000020D80600205002002091
:103D700004ED00E030B587B00024FEF779FD134D67
:103D8000A868B0B100200690059004AA05A906A86D
:103D9000FFF774F9DDE905100222CDE90021029058
:103DA00000230BA10C48049AFFF75EFEE86000B107
:103DB000012414B107B0204630BD502080F3118893
:103DC000BFF34F8FBFF36F8FFEE700005800002056
:103DD000546D722053766300D12E00082DE9FF4107
:103DE00006460A9F9C460020002E15D0154DAC6853
:103DF000002C0ED000910192029606291BDAFFF7E3
:103E000061FE022810D000231A466946A868FFF711
:103E10000BFC04B0BDE8F081502080F31188BFF3A3
:103E20004F8FBFF36F8FFEE700233A466946A868BD
:103E3000FFF7FAFBEDE70023624669462046FFF7ED
:103E4000A5FCE6E7580000209846000800000000A6
:103E50000000000000000000000000000002000060
:103E60001800000000000000000000000102020332
:103E70000405060708090A0B0C0D0E0F10100000B0
:103E8000000000000000010203040607080900000A
:103E90000000010203040000000000000000000018
:103EA00000000000000000FE020202020202003FC9
:103EB0002020202020200000000000000000000042
:103EC00000000000000000FE020202020202003FA9
:103ED00020202020202000FE020202020202003FD9
:103EE00020202020202000FE020202020202003FC9
:103EF00020202020202000FE020202020202003FB9
:103F000020202020202000FE020202020202003FA8
:103F100020202020202000FE020202020202003F98
:103F200020202020202000000000000000000000D1
:103F30000000000000000000000000000000000081
:103F40000000000000000000000000000000000071
:103F500000000000000000FE020202020202003F18
:103F600020202020202000FE020202020202003F48
:103F700020202020202000FE020202020202003F38
:103F800020202020202000FE020202020202003F28
:103F900020202020202000FE020202020202003F18
:103FA00020202020202000FE020202020202003F08
:103FB00020202020202000FE020202020202003FF8
:103FC00020202020202000FE020202020202003FE8
:103FD00020202020202000FE020202020202003FD8
:103FE00020202020202000FE020202020202003FC8
:103FF00020202020202000FE020202020202003FB8
:1040000020202020202000FE020202020202003FA7
:1040100020202020202000FE020202020202003F97
:1040200020202020202000FE020202020202003F87
:1040300020202020202000FE020202020202003F77
:1040400020202020202000FE020202020202003F67
:1040500020202020202000000000000000000000A0
:104060000000000000000000000000000000000050
:104070000000000000000000000000000000000040
:104080000000000000000000000000000000000030
:104090000000000000000000000000000000000020
:1040A000000000000000000000F800000000000018
:1040B00000330000000000100C02100C0200000091
:1040C0000000000000000040C07840C078000004FC
:1040D0003F04043F040000708888FC08300000188A
:1040E0002020FF211E00F008F08060180000003141
:1040F0000C031E211E0000F00888700000001E2125
:10410000232C1927211000120E00000000000000CF
:10411000000000000000000000E0180402000000A1
:1041200000071820400000020418E00000000040D2
:10413000201807000000404080F08040400002024C
:10414000010F0102020000000000E0000000000179
:1041500001010F01010100000000000000000090BB
:1041600070000000000000000000000000000001DE
:10417000010101010100000000000000000000300A
:1041800030000000000000000000C03804000060A3
:1041900018070000000000E010080810E000000F01
:1041A000102020100F0000001010F8000000000088
:1041B00020203F202000007008080808F000003090
:1041C00028242221300000300808088870000018D8
:1041D000202121221C000000804030F80000000651
:1041E0000524243F242400F8888888080800001942
:1041F000202020110E0000E0108888900000000FA1
:10420000112020201F0000180808886818000000EE
:10421000003E010000000070880808887000001C43
:10422000222121221C0000F008080810E0000001F3
:10423000122222110F00000000C0C0000000000088
:10424000003030000000000000800000000000008E
:1042500000E0000000000000804020100800000185
:10426000020408102000004040404040400000028E
:10427000020202020200000810204080000000201C
:10428000100804020100007048080888700000004F
:10429000003037000000C030C828E810E0000718E0
:1042A00027282F2817000000C038E0000000203C1D
:1042B00023020227382008F8888888700000203FF1
:1042C000202020110E00C030080808083800071808
:1042D00020202010080008F808080810E000203FFF
:1042E000202020100F0008F88888E8081000203FE0
:1042F00020202320180008F88888E8081000203FB4
:10430000200003000000C03008080838000007182B
:104310002020221E020008F808000008F808203FAC
:10432000210101213F20000808F8080800000020B2
:10433000203F2020000000000808F8080800C08086
:1043400080807F00000008F888C028180800203FFF
:1043500020012638200008F8080000000000203F57
:1043600020202020300008F8F800F8F80800203F4E
:10437000013E013F200008F830C00008F808203F47
:10438000200007183F00E01008080810E0000F1098
:10439000202020100F0008F808080808F000203F2F
:1043A000210101010000E01008080810E0000F10D2
:1043B000282830504F0008F8888888887000203FEF
:1043C0002000030C302000708808080838000038EE
:1043D000202121221C00180808F8080818000000F5
:1043E000203F2000000008F808000008F808001F1F
:1043F000202020201F000878880000C8380800000E
:1044000007380E01000008F800F800F80800000363
:104410003E013E03000008186880806818082030BC
:104420002C03032C30200838C800C83808000000CE
:10443000203F2000000010080808C8380800203875
:10444000262120201800000000FE020202000000C9
:10445000007F40404000000438C000000000000021
:1044600000010638C00000020202FE000000004009
:1044700040407F0000000000040202040000000031
:10448000000000000000000000000000000080802C
:104490008080808080800002020400000000000014
:1044A0000000000000000000808080000000001973
:1044B0002424123F200010F0008080000000003F04
:1044C000112020110E000000008080800000000EEE
:1044D000112020201100000080808090F000001F3B
:1044E000202020103F200000808080800000001FDE
:1044F000242424241700008080E0909020000020D5
:10450000203F202000000000808080808000006B21
:1045100094949493600010F0008080800000203F0D
:10452000210000203F20008098980000000000201B
:10453000203F20200000000000809898000000C06C
:104540008080807F000010F0000080808000203F8D
:10455000240629302000001010F800000000002080
:10456000203F202000008080808080808000203FCD
:1045700020003F20003F8080008080800000203F9E
:10458000210000203F200000808080800000001F6C
:10459000202020201F00808000808000000080FFFD
:1045A000912020110E000000008080008000000E8D
:1045B00011202091FF80808080008080800020205A
:1045C0003F212000010000008080808080000033B7
:1045D000242424241900008080E080800000000052
:1045E000001F202010008080000000808000001F3D
:1045F000202020103F2080808000808080000003E9
:104600000C300C0300008080008080008080010E50
:10461000300C073806010080808000808000002078
:10462000310E2E312000808080000080808000814B
:10463000867818060100008080808080800000213C
:10464000302C222130000000000000FC020200009B
:104650000000013E404000000000FF00000000009C
:104660000000FF0000000202FC00000000004040CB
:104670003E010000000000020102020402000000EE
:10468000000000000000000000000000000000002A
:10469000000000000000000064656661756C7454E1
:1046A00061736B00C4460008000000209C000000FD
:1046B00028010008604700089C000020AC20000092
:1046C000440100080000000000000000000000009D
:1046D00001000000100000000000000000127A003D
:1046E00000000000000000000000000000000000CA
:1046F00000000000000000000000000000000000BA
:1047000000000000000000000000000000000000A9
:104710000000000000000000000000000000000099
:104720000000000000000000000000000000000089
:104730000000000000000000000000000000000079
:104740000000000000000000000000000000000069
:10475000AAAAAAAA00000000020000009C000020F3
:04000005080000ED02
:00000001FF
