:020000040800F2
:100000003807002089010008B11300089712000882
:10001000711300088F020008C916000800000000D4
:10002000000000000000000000000000D9130008DC
:10003000C502000800000000B3130008E91400081E
:10004000A3010008A3010008A3010008A301000800
:10005000A3010008A3010008A3010008A3010008F0
:10006000A3010008A3010008A3010008A3010008E0
:10007000A3010008A3010008A3010008A3010008D0
:10008000A3010008A3010008A3010008A3010008C0
:10009000A3010008A3010008A3010008A3010008B0
:1000A000A3010008A3010008A3010008A3010008A0
:1000B000A3010008A3010008A3010008A301000890
:1000C000A3010008A3010008A3010008A301000880
:1000D000A3010008A3010008A3010008A301000870
:1000E000A3010008A3010008A301000800F002F822
:1000F00000F03AF80AA090E8000C82448344AAF188
:100100000107DA4501D100F02FF8AFF2090EBAE885
:100110000F0013F0010F18BFFB1A43F0010318473B
:100120002C1E00004C1E0000103A24BF78C878C175
:10013000FAD8520724BF30C830C144BF04680C60ED
:10014000704700000023002400250026103A28BF35
:1001500078C1FBD8520728BF30C148BF0B60704739
:100160001FB51FBD10B510BD00F058F81146FFF7C0
:10017000F7FF01F04DFB00F076F803B4FFF7F2FF54
:1001800003BC00F07DF8000009488047094800479B
:10019000FEE7FEE7FEE7FEE7FEE7FEE7FEE7FEE737
:1001A000FEE7FEE704480549054A064B7047000094
:1001B0004B150008ED00000838010020380700202A
:1001C00038030020380300204FF0000200B513462A
:1001D00094469646203922BFA0E80C50A0E80C5067
:1001E000B1F12001BFF4F7AF090728BFA0E80C5018
:1001F00048BF0CC05DF804EB890028BF40F8042B11
:1002000008BF704748BF20F8022B11F0804F18BF7D
:1002100000F8012B7047704770477047754600F033
:100220002BF8AE4605006946534620F00700854688
:1002300018B020B5FFF7B6FFBDE820404FF000062C
:100240004FF000074FF000084FF0000B21F00701BE
:10025000AC46ACE8C009ACE8C009ACE8C009ACE801
:10026000C0098D46704710B50446AFF300802046A4
:10027000BDE81040FFF781BF00487047D80000205C
:1002800001491820ABBEFEE7260002007047FEE7DA
:1002900000B58BB0012109910020069005900190D6
:1002A0000290039004900790089101A9044800F07F
:1002B000A3F8002801D000F01FF80BB000BD00002B
:1002C0006800002070471CB50120FF218DF8001048
:1002D0008DF801108DF802108DF803108DF80410C0
:1002E0008DF805108DF80610FC218DF807100822F6
:1002F000694601F049F81CBD72B6FEE708B50090EA
:1003000008700098000A48700098000C88700098E7
:10031000000EC87008BDF0B590F820500468A468BD
:10032000012D07D0022D05D0416A41F480214162A0
:100330000120F0BD04F0806504F00066354301D172
:10034000E50053D5C4F301640125A5401D608B6809
:100350004FF4C0759BB1CE6805EB041733434E686C
:1003600043EAC6030668F3514FF4C273076803EB10
:1003700004130E69FE50097D012909D00DE00E8895
:10038000CB6805EB041743EA46530668F351EBE7E5
:100390000168CE5846F48076CE501179D3795679DB
:1003A00041EA036193791B0443EA062319434FF49E
:1003B000C676036806EB041699511178D37841EAA2
:1003C0000361937852781B0443EA022211434FF4ED
:1003D000C473026803EB0413D150006805EB0411E9
:1003E000425842F0010242500020F0BD416A41F4FF
:1003F000001141620120F0BD10B5026890F8203074
:10040000012B07D0022B05D0416A41F480214162C3
:10041000012010BDD2F8000240F00100C2F8000235
:10042000087D00F01F0301209840D2F81C3283435E
:10043000C2F81C32CB69B3B9D2F80C328343C2F88C
:100440000C328C894B6864F31F434C6902EBC40483
:10045000C4F840320C890B6864F31F434C6902EB0B
:10046000C404C4F84432CB69012B16D1D2F80C3243
:100470000343C2F80C320C884B6864F31F434C6989
:1004800002EBC404C4F840320C89CB6864F31F4308
:100490004C6902EBC404C4F844328B697BB1D2F8D6
:1004A00004320343C2F804320B6973B1D2F8143238
:1004B0000343C2F81432096A01290CD010E0D2F8C3
:1004C00004328343C2F80432EEE7D2F81432834395
:1004D000C2F81432EFE7D2F81C120143C2F81C1222
:1004E000D2F8000220F00100C2F80002002010BD86
:1004F00070B590F82040012C07D0022C05D0416A3D
:1005000041F480214162012070BD21B10468246959
:10051000A4072AD003E00468E468A4071FD04FF4BE
:10052000D874056804EB01142D5905F00405956095
:100530000DB305682D59ED08556005682C5904F078
:100540000204D4604FF4DA74056804EB01142E59E8
:1005500006F00F06082E13D30825156114E0416A32
:1005600041F400114162012070BD416A41F4001163
:100570004162012070BD05682D596D0D1560DCE7E5
:100580002D5905F00F05156105682D59C5F307258F
:10059000956105682C59240C54614FF4DC72046891
:1005A00002EB0112A4581C700468A458240A5C7061
:1005B0000468A458240C9C700468A258120EDA70C7
:1005C0004FF4DE72046802EB0112A4581C71046837
:1005D000A458240A5C710468A458240C9C71046813
:1005E000A258120EDA7131B10068016941F02001A0
:1005F0000161002070BD0068C16841F02001C16048
:10060000F7E770B50446002C03D094F8200010B131
:1006100004E0012070BD204600F09CF820680168CD
:1006200041F00101016000F015FA054605260CE0D5
:1006300000F010FA401B0A2807D9606A40F4003025
:10064000606284F82060012070BD20684068C007A7
:10065000EED02068016821F00201016000F0FAF993
:1006600005460CE000F0F6F9401B0A2807D9606A3D
:1006700040F40030606284F82060012070BD206882
:1006800040688007EED4207E01283FD020680168B2
:1006900021F080010160607E01283DD02068016862
:1006A00021F040010160A07E01283BD02068016854
:1006B00021F020010160E07E012839D02068016826
:1006C00041F010010160207F012837D020680168C7
:1006D00021F008010160607F012835D020680168A1
:1006E00021F004010160D4E902010843D4E90412B5
:1006F000114308436168491E08432168C86100200E
:100700006062012084F82000002070BD206801682C
:1007100041F080010160BEE72068016841F04001BE
:100720000160C0E72068016841F020010160C2E774
:100730002068016821F010010160C4E720680168A9
:1007400041F008010160C6E72068016841F004013A
:100750000160C8E710B586B00021029103910491B1
:1007600005910068184988422BD11848C16941F0A9
:100770000071C161C16901F000710191816941F0AD
:1007800008018161806900F0080001904FF48070D9
:1007900002900F4C02A9204600F05CF8611502910E
:1007A000022103910321059102A9204600F052F88D
:1007B0000849486820F4C04040F0E06040F48040C0
:1007C000486006B010BD0000006400400010024008
:1007D000000C01400000014070B5044694F8200070
:1007E000012805D0606A40F400206062012070BDDD
:1007F000022084F820002068016821F001010160D6
:1008000000F028F905460DE000F024F9401B0A2805
:1008100008D9606A40F400306062052084F8200046
:10082000012070BD20684068C007EDD1606270BDD6
:1008300070B5044600F00EF90546601C02D004486D
:100840000078044400F006F9401BA042FAD370BDC2
:10085000100000202DE9F84F00240023DFF8C49198
:100860004FF00F08A9F1040B09F1040AABF1040ED3
:10087000D1E00127A7403A40BA4275D1DFF8A8C1BC
:100880004D68A5EB0C0665452BD00DDC032D34D04F
:1008900005DC35B3012D19D0022D2FD11BE0112D10
:1008A00016D0122D2AD119E0B6F5881F19D006DC12
:1008B000B6F5803F15D0B6F5801F1FD111E0B6F513
:1008C000001F0ED0B6F5041F18D10AE0CB6815E062
:1008D000CB681B1D12E0CB6808330FE0CB680C33EC
:1008E0000CE08B6823B1012B04D00823476105E09D
:1008F000042303E00823076100E00023FF2A01D856
:10090000054601E000F1040502D84FEA840603E041
:10091000A4F108064FEA86062F6808FA06FC27EAC3
:100920000C0703FA06F647EA06072F604D68ED004C
:1009300070D53E4DAE6946F00106AE61AD6905F079
:10094000010500953A4D24F003067719BE68A50706
:100950002D0F08FA05FC26EA0C06DFF8D8C0604522
:1009600003D14FF0000C17E054E0DFF8CCC0604535
:1009700002D14FF0010C0FE0DFF8C0C0604502D19A
:100980004FF0020C08E0DFF8B8C0604502D14FF02C
:10099000030C01E04FF0040C0CFA05FC4CEA060CC9
:1009A000C7F808C04D68ED0205D5D9F800501543C9
:1009B000C9F8005004E0D9F800509543C9F8005038
:1009C0004D68AD0205D5DAF800501543CAF800505D
:1009D00004E0DAF800509543CAF800504D68AD03C2
:1009E00005D5DBF800501543CBF8005004E0DBF8E8
:1009F00000509543CBF800504D68ED0305D5DEF867
:100A000000501543CEF8005004E0DEF80050954346
:100A1000CEF80050641C0A6832FA04F57FF429AF5E
:100A2000BDE8F88F080401400000111000100240DA
:100A30000000014000080140000C0140001001408E
:100A4000001401408068084201D001207047002056
:100A500070470000014880687047000010000020C7
:100A600002488168027811448160704710000020BC
:100A700010B50748016841F010010160032000F043
:100A800069F80F2000F006F800F026F8002010BDED
:100A90000020024070B504460D4D4FF47A7128785D
:100AA000B1FBF0F00B490968B1FBF0F000F01CFB62
:100AB00008B1012070BD102C07D200222146501E23
:100AC00000F028F86C60002070BD012070BD0000AF
:100AD000100000201C00002008B50C48816941F07E
:100AE00001018161816901F001010091C16941F059
:100AF0008051C161C06900F080500090044948688D
:100B000020F0E06040F00070486008BD0010024036
:100B100000000140F0B40D460D4B1B68C3F30223E7
:100B2000C3F10704042C00D90424191D072901D29C
:100B3000002300E0DB1E012606FA04F1491E2940CD
:100B400099409E40761E16403143F0BC00F0EBBD4C
:100B50000CED00E000F00701054A10684FF6FF03B6
:100B6000184040EA01200349084310607047000024
:100B70000CED00E00000FA052DE9F04704460D46B3
:100B8000002C17D0DFF83081D8F8000000F0070003
:100B9000A84211D2D8F8000020F007002843C8F876
:100BA0000000D8F8000000F00700A84204D001209F
:100BB000BDE8F0870120FBE72068404E810712D591
:100BC000400703D5706840F4E0607060207800074B
:100BD00003D5706840F4605070607068A16820F0C0
:100BE000F000084370602078C0072CD060680128AE
:100BF00006D0022809D0316889070BD40120D7E735
:100C00003168890306D40120D2E73168890101D413
:100C10000120CDE7716821F0030101437160FFF706
:100C200019FF074641F2883906E0FFF713FFC01BA2
:100C3000484501D90320BBE77068616800F00C00EB
:100C4000B0EB810FF1D1D8F8000000F00700A84206
:100C50000ED9D8F8000020F007002843C8F800009B
:100C6000D8F8000000F00700A84201D001209FE75B
:100C70002078400705D57068E16820F4E0600843FB
:100C800070602078000706D57068216920F46050F4
:100C900040EAC100706000F03FF87168084AC1F393
:100CA0000311515CC8400749086007480068FFF716
:100CB000F1FE00207CE7000000200240001002400E
:100CC000341F00081C0000201400002001480068A8
:100CD000704700001C00002000B5FFF7F7FF044933
:100CE0004968044AC1F30221515CC84000BD0000BC
:100CF00000100240441F000800B5FFF7E7FF044959
:100D00004968044AC1F3C221515CC84000BD0000DB
:100D100000100240441F00080E4B59680E4801F0B5
:100D20000C02042A11D0082A0FD10C48C1F38342C7
:100D3000805CC9030AD55968084AC1F34041921E34
:100D4000515C054A5043B0FBF1F0704704494843F9
:100D5000704700000010024000127A00241F0008B3
:100D600000093D002DE9F84F0446002C0ED02078F4
:100D7000D94DC0075ED06868C0F3810001280BD050
:100D80006868C0F38100022803D00CE00120BDE8B0
:100D9000F88F6868C00306D5286880034AD5606864
:100DA000A8BB0120F3E76068B0F5803F11D0A8B17F
:100DB000B0F5A02F1BD0286820F480302860286868
:100DC00020F480202860606830B3FFF743FE0646B9
:100DD0001EE0286840F480302860F4E7286820F49A
:100DE00080302860286820F480202860EBE728689D
:100DF00040F480202860286840F480302860E2E7D2
:100E0000FFF728FE801B642802D90320BFE711E00A
:100E100028688003F4D50DE0FFF71CFE064606E0C7
:100E2000FFF718FE801B642801D90320AFE728686C
:100E30008003F5D42078DFF8A48280074FF0010A00
:100E40004FF0000945D5686810F00C0F07D06868AE
:100E5000C0F38100022812D16868C0030FD428684B
:100E6000800704D52069012801D001208FE7286878
:100E7000616920F0F80040EAC100286029E020699B
:100E8000B8B1C8F800A0FFF7E5FD064606E0FFF799
:100E9000E1FD801B022801D9032078E7286880073C
:100EA000F5D52868616920F0F80040EAC1002860A3
:100EB0000FE0C8F80090FFF7CDFD064606E0FFF70B
:100EC000C9FD801B022801D9032060E7286880073C
:100ED000F5D42078000726D58148A16999B1C0F8DA
:100EE00000A0FFF7B7FD064606E0FFF7B3FD801B45
:100EF000022801D903204AE7686A8007F5D5012056
:100F000000F058FA0FE0C0F80090FFF7A3FD064686
:100F100006E0FFF79FFD801B022801D9032036E77A
:100F2000686A8007F5D42078400773D50026E86901
:100F3000C00008D4E86940F08050E861E86900F03A
:100F4000805000900126DFF89CB1DBF80000C0055E
:100F500014D4DBF8000040F48070CBF80000FFF7F9
:100F600079FD074606E0FFF775FDC01B642801D92F
:100F700003200CE7DBF80000C005F4D5E068012889
:100F800012D0B0B105281DD0286A20F001002862D7
:100F9000286A20F004002862E06841F2883B28B308
:100FA000FFF758FD07461DE0286A40F0010028625F
:100FB000F2E7286A20F001002862286A20F0040085
:100FC0002862E9E7286A40F004002862286A40F0B5
:100FD00001002862E0E7FFF73DFDC01B584501D93D
:100FE0000320D4E6286A8007F5D50DE0FFF732FD2F
:100FF000074606E0FFF72EFDC01B584501D9032028
:10100000C5E6286A8007F5D4012E03D1E86920F0EF
:101010008050E861E069A0B36968C1F381010229E9
:1010200046D0022805D0C8F86090FFF713FD0446AB
:101030003AE0C8F86090FFF70DFD064606E0FFF7BE
:1010400009FD801B022801D90320A0E62868800141
:10105000F5D4206AB0F5803F05D16868A16820F416
:10106000003008436860D4E908010843696821F446
:10107000741108436860C8F860A0FFF7EBFC0446F1
:1010800007E026E0FFF7E6FC001B022801D9032059
:101090007DE628688001F5D51BE0FFF7DBFC001B2F
:1010A000022801D9032072E628688001F5D410E0F7
:1010B00001280CD06868226A00F48031914204D182
:1010C000616A00F47010884203D001205FE60120BD
:1010D0005DE600205BE60000001002400000424296
:1010E000800442420070004010B5401EB0F1807F85
:1010F00001D3012010BD4FF0E02460610F21601783
:1011000000F011FB0020A06107202061002010BD2D
:1011100070B50446002C04D094F84100002510B1AD
:1011200006E0012070BD84F84050204600F024F80D
:10113000242084F841002068C16821F40051C16076
:10114000204600F02BFA2068016921F490410161EA
:101150002068416921F02A0141612068C16841F499
:101160000051C1606564202084F8410084F8420089
:101170006563002070BD000030B585B00024019487
:1011800002940394049400681449884224D11448BA
:10119000816941F480418161816901F4804100915C
:1011A000816941F004018161806900F004000090D0
:1011B0004FF4007001900220029003200490094D2A
:1011C00001A92846FFF746FB2915019102940394D3
:1011D00001A92846FFF73EFB05B030BD00380140AD
:1011E00000100240000801402DE9F84304460E4675
:1011F00015461F4694F84100202802D00220BDE881
:10120000F8837EB175B100206064212084F841002C
:10121000FFF720FC8146A584E584A068B0F5805FD7
:1012200002D003E00120EAE7206920B1354600261C
:101230004FF0200815E00025FAE74B4600228021F8
:101240002046009700F006FA18B184F84180032088
:10125000D5E7ADB1216815F8010B4860E08C401E60
:10126000E084E08C0028E8D14B4600224021204653
:10127000009700F0EFF950B184F841800320BEE7F9
:1012800036F8020B2168C0F308004860E6E784F8EE
:1012900041800020B3E7FEE710B50F480D4901601B
:1012A0000921416000218160C1604FF480320261F8
:1012B00041610176417681760122C27601774177DC
:1012C000FFF79FF9002803D0BDE81040FFF714B8DE
:1012D00010BD0000006400406800002000B585B02B
:1012E0000020029004901248816941F02001816140
:1012F000816901F020010091816941F0080181615B
:10130000816901F008010091816941F00401816166
:10131000806900F00400009040F602000190012076
:10132000039001A90348FFF795FA05B000BD00003E
:1013300000100240000C014010B50C480A49016041
:101340004FF4E131416000218160C16001610C22F4
:1013500042618161C161FFF7DBFE002803D0BDE877
:101360001040FEF7C9BF10BD0038014090000020BA
:10137000FEE7000010B5FEF78BFFBDE81040014806
:10138000FFF72ABA6800002000B587B0019000205E
:1013900002900490039005928DF818000A466B465F
:1013A00001A90248FEF7B7FF07B000BD68000020A2
:1013B000FEE7704708B507494FF4FA520968B1FBD8
:1013C000F2F14143009100BF0098411E0091FAD212
:1013D00008BD00001C000020704700002DE9FC47FC
:1013E0000546894614463D4E3D4FB54201DD354622
:1013F00002E0BD4200D93D464FF00108A08920859A
:101400004946284600F018FD00F0B0FB00B2A0816C
:1014100000F0C8FB8246216800F010FC20615046B5
:10142000616800F00BFC616900F070FA6061216A8C
:1014300000F0D0FC02D2206A60610AE0206A616993
:1014400080F0004000F0C6FC03D2206A80F000402B
:101450006061B4F90C00218D401A00F0A3FBA16873
:1014600000F0ECFB8246A061D4E9040100F04EFAE2
:10147000514600F04BFAE061616A00F0ABFC02D229
:10148000606AE0610AE0606AE16980F0004000F0B3
:10149000A1FC03D2606A80F00040E0614A46294620
:1014A0001048E36900F036F90C2332463946E0690A
:1014B00000F090F9002100918DF804108DF80510CE
:1014C000C0F303218DF806108DF807000822694645
:1014D0004046FFF759FFBDE8FC8700000000B84117
:1014E0000000B8C190000020FFF7BABA30B58FB045
:1014F000282105A8FEF768FE14216846FEF764FE61
:101500000121059108040690002407940991022501
:101510000C950D904FF4E0100E9005A8FFF722FCFB
:1015200008B1FEF7E9FE0F200090019502944FF4F8
:1015300080600390049402216846FFF71DFB002899
:1015400001D0FEF7D9FE0FB030BD704701680C31F5
:1015500051E8002F22F4907241E80023002BF5D1CE
:101560000168143151E8002F22F0010241E8002304
:10157000002BF5D1016B012909D101680C3151E82B
:10158000002F22F0100241E80023002BF5D120218A
:1015900080F84210002101637047000070B50446D6
:1015A00020680169E26821F4405111430161A1689A
:1015B00020690143606901432068C26841F20C63FD
:1015C0009A430A43C26020684169A26921F44071CC
:1015D000114341611E492068884202D1FFF78CFB0C
:1015E00001E0FFF779FB00EBC00101EB001061683F
:1015F00064228900B0FBF1F3B3FBF2F36FF018063D
:101600007343B0FBF1F5B0FBF1F605EB8305322334
:1016100003EB0515B5FBF2F5B6FBF2F605F0F005A8
:1016200005EB0615B0FBF1F6B0FBF1F0B0FBF2F004
:101630006FF01801484306EB800003EB0010B0FB8D
:10164000F2F0216800F00F002844886070BD0000AF
:10165000003801402DE9F84304460D4617469846E8
:10166000089E25E0701C23D0FFF7F4F9A0EB0800DA
:10167000B0421BD8D6B12068C168490718D5802D63
:1016800016D0402D14D00168C943090710D4002595
:1016900021680968406800902046FFF757FF08203E
:1016A000606484F840500120BDE8F8830320FBE724
:1016B0002068006835EA000004D00020B842D1D08C
:1016C0000020F1E70120F9E7FEE700002DE9FC41E9
:1016D00080460D4616460EA0006800900024671E46
:1016E0000CE055F8240001A9FEF708FE3B46042251
:1016F00001A94046FFF778FD641CE4B2B442F0D380
:101700003B46042269464046FFF76EFDBDE8FC817A
:101710000000807F0EB5009101920293032269467A
:10172000FFF7D4FF0EBD0907090E002804DB00F106
:10173000E02080F80014704700F00F0000F1E02076
:1017400080F8141D704700002DE9F0471E4C02215F
:101750002046FFF777F90746E1142046FFF772F9B4
:101760000546DFF868801A4C4FF00109002637B1B2
:101770002670B5B1A6706770E570BDE8F087607837
:1017800010B184F80090F4E72078401CC0B22070BB
:101790000A28EED34146606800F0B8F86060267011
:1017A000E7E7E07810B184F80290E4E7A078401C05
:1017B000C0B2A0700A28DED34146606800F03CFB4E
:1017C0006060A670D7E70000000C014000002041D7
:1017D000000000202DE9F04107460C4610461E4649
:1017E000214600F029FB05460120B040401E00F0D4
:1017F000D9F906462146384600F01EFB314600F076
:101800001DFA294600F0F0F8BDE8F04100F0AEB94D
:1018100025482449016025494160254981602549C1
:1018200001624FF07E514162FFF722F9FFF75EFE41
:10183000FFF754FDFFF730FDFFF77EFDFFF79AFD40
:10184000FEF741FD1D4C1C4F002504F10806DFF892
:101850007080DFF87090FFF777FF6068B84201DDB5
:10186000656003E01849884200D96560134B0E4A51
:1018700008331C3A00211548FEF73AFEF07831791A
:10188000000140EA11100C234246494600F020F8BE
:101890000146054A6068FFF7A1FD0A20FEF7C8FF70
:1018A000D9E70000CE34613D3C000020A913503B35
:1018B000AB20AB350000A0400000A041000000209C
:1018C0000000F0410000F0C10000A0C1680000204D
:1018D0002DE9F04107460C4610461D46214600F012
:1018E000ABFA06460120A840401E00F05BF9054611
:1018F000384600F057F9314600F0A0F9294600F0CB
:1019000073F82146BDE8F041AFF3008090EA010F83
:1019100048BF81F0004100F19682421A3CBF801A14
:1019200089184FEAD0524FF07F4C1CEA410FA2EBCE
:10193000D15318BF9CEA026F00F03B804FF0004C7F
:101940004CEA00204CEA012121FA03FC10EB0C0CBC
:101950001ED202F1FF325FEA1C2040EBC25038BFBA
:1019600070471CF07F0F4FEA400C18BFBCF17F4F4F
:1019700038BF7047C3F12003994008BF20F0010031
:10198000BCF17F4F38BF7047A0F1C04000F01DBAD6
:101990004FEA3C00000A40EBC25028BF1CF0FF0F8A
:1019A0004FEA400CE6D018BFBCF17F4F38BF7047FC
:1019B000EAE79CEA026F05D010EA5C0F08BF00F06E
:1019C0000040704710B500F0BAF900BF64FBBE3E9E
:1019D000401058BFC0F14040491058BFC1F14041CC
:1019E0008142EFF3008070474FF47F0C1CEAD01265
:1019F0001EBF1CEAD11392EA0C0F93EA0C0F00F001
:101A0000858090EA010F48BF42F4807240F4000CD8
:101A100041F400002CF07F4120F07F4000B581426E
:101A2000A2EB03020FF2081CACEB504EC0F1000019
:101A30009EF800E04FEA4E0E00FB0EFC38BF490056
:101A40004FEA2C1C02F5FA020CFB0EF34FEACE1EF5
:101A50004FEA112C4FEAC1210EEB635E42EB2242AA
:101A60000EFB0CFC4FEA1C5300FB03114FEA112C38
:101A70004FEA01310EFB0CFC4FEADC4C00FB0C1171
:101A8000C14228BF09184CEB03335DF804EB10EB9F
:101A9000410143EBC250B2F57C0F38BF704729D5E6
:101AA00012F0F00F1CBF00F1C04000F00040704782
:101AB000008182838485868788898B8C8D8E8F9127
:101AC0009293959697999A9C9D9FA0A2A3A5A7A84B
:101AD000AAACAEB0B2B3B5B7B9BCBEC0C2C5C7C977
:101AE000CCCED1D4D7D9DCDFE2E6E9ECF0F3F7FADB
:101AF000FE0000004FEA400C0CF1807CBCF17E4FF0
:101B000028BF7047B0F1C04000F05FB990EA010F04
:101B10000CEAD11348BF42F48072624538BF634576
:101B200007D213F47F0F16D080EA010000F00040C6
:101B3000704710B500F003F9097EFC3E00F005B8CF
:101B400080EA010000F00040704780EA010000F0E8
:101B5000004000F03AB912F47F0F04BF024870470A
:101B600080EA010000F031B90000C07F41000B0E97
:101B7000D3F19E0208D950F400034FEA032323FA5D
:101B800002F048BF4042704710B500F0D8F800BFDF
:101B900049922480002070476FF0004282EA2000C2
:101BA0007047000010F0004148BF4042B0FA80F397
:101BB00010FA03F2C3F19D030BD051EAC35101EBBC
:101BC0001220530638BF704700F1010008BF20F013
:101BD0000100704750EA010C00F113801CF5000F62
:101BE00058BFBCF5000F01D48842704707D710F5E5
:101BF000000F58BF11F5000F15D488427047894275
:101C000070471CF5000F04D5BCF5000FF7D58142D5
:101C100070474FF0807C1CEB400F38BF1CEB410F2E
:101C200001D28142704710B500F089F89224490032
:101C30004FF000504FF08051FFF7CABE4FF47F0CB9
:101C40001CEAD0121EBF1CEAD11392EA0C0F93EAD1
:101C50000C0F00F0478090EA010F48BF42F48072F9
:101C60004FF0004C4CEA00204CEA012102EB030249
:101C7000A0FB0113A2F50002002918BF43F00103E5
:101C80005B0028BF4FEA330342EB22425FEA132C8A
:101C90004CEBC2502EBFBCEB436FB2F57C0F7047CC
:101CA0004FEA036CBCF1004F08BF20F00100B2F511
:101CB0007C0F38BF70470BD582F0FF0212F5803FD2
:101CC000C8BF704700F1C040D8BF00F00040704767
:101CD00000F5000C5FEA4C0C48BF7047B0F1C04003
:101CE00000F073B890EA010F0CEAD11348BF42F438
:101CF0008072624538BF634504D280EA010000F07B
:101D00000040704710B500F01AF800BF8900013E8E
:101D100000F007B800F009B85FEA410C5FEA1C6CFC
:101D200008D080EA010000F050B85FEA400C5FEA9A
:101D30001C6CF6D14FF00040A0F5800070470EF10A
:101D4000020E2EF0030E5EF8044B244204D44FEA38
:101D50004102B2F17F4F11D84FEA4003B3F17F4FF8
:101D60000CD80ED14FEAD07CB2F17F4F0CEB4C0C6B
:101D70000CF1020C08BF4CEBD17C04E04FF0080CD6
:101D800001E04FEAD17C0CEB4C0324FA03F404F09D
:101D90000704B4F1040C06D20EEB840CBDE810402D
:101DA0004CF0010C6047DFE80CF0070802024FF02E
:101DB0000040A0F5800010BD0846420018BFD2F1D7
:101DC000807288BF00F0004010BDFF2141EAD05072
:101DD000C005704751EA000C00F113801CF5000F9C
:101DE00058BFBCF5000F01D48142704707D711F5E9
:101DF000000F58BF10F5000F15D48142704789427B
:101E000070471CF5000F04D5BCF5000FF7D58842CC
:101E100070474FF0807C1CEB410F38BF1CEB400F2C
:101E200001D28842704780EA010081EA000180EA1D
:101E30000100FFF7F8BE000090EA010F48BF81F0F3
:101E400000413FF56AAD421A04D882F00042A0EB8F
:101E5000020011444FEAD0524FF07F4C1CEA410F70
:101E6000A2EBD15318BF9CEA026F4AD04FF0004C4E
:101E70004CEA00204CEA012121FA03FCB0EB0C0CE7
:101E80000FD412F0FE0F36D05FEA4C001DD50012C1
:101E900040EBC25038BF70471CF03F0F18BF70476F
:101EA0000BE0A2F101025FEA1C2040EBC25038BFF8
:101EB00070471CF07F0F18BF7047C3F12003994093
:101EC00014BF401E20F00100704780084FEA122323
:101ED00008BF7047B0FA80FCA2EB0C02CCF1280CD2
:101EE00060FA0CF093EA122F04BF00EBC250704767
:101EF0004FEAC3707047130A5FEADC1008BF7047EF
:101F0000F6E79CEA026F04D010EA5C0F08BF0020DD
:101F1000704710B5FFF713FF40DFF63E81F0004039
:101F20007047010202030405060708090A0B0C0D9D
:101F30000E0F10100000000000000000010203045A
:101F40000607080900000000010203046C1F0008D6
:101F50000000002020000000280100088C1F00085D
:101F600020000020180700004401000800010001C3
:101F70000000000000000000000000000100000060
:0C1F8000100000000000000000127A00B9
:04000005080000ED02
:00000001FF
