:020000040800F2
:10000000B00700246D030008B54C0008AB4B000896
:10001000B14C000863050008E96200080000000018
:10002000000000000000000000000000854F0008F4
:10003000DB08000800000000B94C0008874F0008EA
:100040008703000887030008870300088703000868
:100050008703000887030008870300088703000858
:10006000870300088703000887030008D5050008F8
:100070008703000887030008870300088703000838
:100080008703000887030008870300088703000828
:100090008703000887030008870300088703000818
:1000A0008703000887030008870300088703000808
:1000B00087030008870300088703000887030008F8
:1000C00087030008870300088703000887030008E8
:1000D00087030008870300088703000887030008D8
:1000E000870300088703000800000000870300085A
:1000F00087030008870300088703000887030008B8
:1001000087030008870300088703000887030008A7
:1001100087030008255100088703000887030008AB
:100120008703000887030008870300088703000887
:100130008703000887030008870300088703000877
:1001400000000000000000000000000000000000AF
:100150008703000887030008870300088703000857
:100160008703000887030008870300088703000847
:1001700087030008870300088703000800000000C9
:100180008703000887030008870300088703000827
:100190008703000887030008870300088703000817
:1001A0008703000887030008870300080000000099
:1001B00087030008870300088703000887030008F7
:1001C000870300088703000800000000000000000B
:1001D000000000000000000087030008000000008D
:1001E000000000000000000000000000000000000F
:1001F00000000000000000008703000887030008DB
:100200008703000887030008000000008703000838
:100210008703000887030008870300088703000896
:1002200087030008000000008703000800000000AA
:100230008703000887030008000000008703000808
:100240008703000887030008870300088703000866
:100250008703000887030008870300088703000856
:100260008703000887030008870300088703000846
:1002700087030008870300088703000800000000C8
:100280008703000887030008870300088703000826
:10029000000000008703000887030008000000003A
:1002A0000000000087030008870300088703000898
:1002B00087030008870300088703000887030008F6
:1002C00087030008870300088703000800F002F88E
:1002D00000F03CF80AA090E8000C82448344AAF1A4
:1002E0000107DA4501D100F031F8AFF2090EBAE8A2
:1002F0000F0013F0010F18BFFB1A43F0010318475A
:10030000A0600000C0600000103A24BF78C878C127
:10031000FAD8520724BF30C830C144BF04680C600B
:10032000704700000023002400250026103A28BF53
:1003300078C1FBD8520728BF30C148BF0B60704757
:100340001FB506F007F81FBD10B510BD00F0CFF8BF
:100350001146FFF7F5FF05F0E5FF00F0EDF803B4F7
:10036000FFF7F2FF03BC00F0F5F8000009488047F2
:1003700009480047FEE7FEE7FEE7FEE7FEE7FEE787
:10038000FEE7FEE7FEE7FEE704480549054A064B9F
:100390007047000045500008CD020008B00100245D
:1003A000B0070024B0030024B003002453EA020C79
:1003B00000F069802DE9F04B4FF00006002B1FBFC5
:1003C000B3FA83F503FA05F424FA05F65E4012BF8A
:1003D0001643B2FA82F502FA05F4C5F120051EBFF4
:1003E00022FA05FC44EA0C04203556EA044C4FEA94
:1003F000144418BF641C4FF000084FF000099042ED
:1004000071EB030C39D3002919BFB1FA81F701FA56
:1004100007F6B0FA80F700FA07F6C7F120071EBF0B
:1004200020FA07FC46EA0C062037B6FBF4FCA7EBE3
:100430000507103F07F01F0BCBF120060CFA0BFB52
:100440002CFA06F644BFB3460026202FA4BF5E4612
:100450004FF0000B5BEA060C08BF4FF0010B19EBE5
:100460000B09ABFB027C48EB0608C01B06FB02CC69
:100470000BFB03CC71EB0C01C1E70B460246414676
:100480004846BDE8F08B13B54FF000004FF0000177
:10049000AFF30080BDE81C4070474FF0000200B58C
:1004A000134694469646203922BFA0E80C50A0E897
:1004B0000C50B1F12001BFF4F7AF090728BFA0E845
:1004C0000C5048BF0CC05DF804EB890028BF40F811
:1004D000042B08BF704748BF20F8022B11F0804F53
:1004E00018BF00F8012B704770477047704775467A
:1004F00000F02CF8AE4605006946534620F0070090
:10050000854618B020B5FFF73FFFBDE820404FF00B
:1005100000064FF000074FF000084FF0000B21F0ED
:100520000701AC46ACE8C009ACE8C009ACE8C009BA
:10053000ACE8C0098D46704710B50446AFF30080A3
:100540002046BDE81040FFF70ABF00000048704792
:100550005001002401491820ABBEFEE7260002002E
:10056000704700BFFEE700B101B9704702784378D9
:1005700042EA0322C2F30A02A2F580620A804278AC
:10058000D210837842EA4312C2F30A02A2F58062D3
:100590004A8082789211C37842EA8302037942EA60
:1005A0008322C2F30A02A2F580628A800279521085
:1005B000437942EAC312C2F30A02A2F58062CA80FA
:1005C0004279121192080A724279C2F301134B72F6
:1005D00000BFCAE710B5024800F0BEFD10BD000024
:1005E000D80000240146374A0868904249D0354A6D
:1005F00018320868904244D0324A3032086890423B
:100600003FD0304A4832086890423AD02D4A603292
:100610000868904235D02B4A78320868904230D032
:10062000284A9032086890422BD0264AA83208689F
:10063000904226D0244A0868904222D0224A18329A
:10064000086890421DD0204A30320868904218D085
:100650001D4A48320868904213D01B4A603208682D
:1006600090420ED0184A78320868904209D0164A53
:1006700090320868904204D0134AA8320868904229
:1006800001D1012000E00020B0B10A78103A18230F
:10069000B2FBF3F000F007020C4B9A5CCA6503282A
:1006A00005D90A686FF30902121D8A6503E00A681A
:1006B0006FF309028A6503E0086820F0FF0088658F
:1006C000886D7047100002401004024086630008E5
:1006D00010B502682B4C0368A34222D0294C143475
:1006E0000368A3421DD0274C28340368A34218D0C6
:1006F000244C3C340368A34213D0224C503403688A
:10070000A3420ED01F4C64340368A34209D01D4C91
:1007100078340368A34204D01A4C8C340368A34293
:1007200001D1012300E000238BB10378083B14249E
:10073000B3FBF4F1144B03EB81030366124B8033DC
:10074000436601F01F040123A340836618E0037889
:10075000103B1824B3FBF4F10C4B9A4204D80B4B1A
:10076000A83B9A4200D30831094B03EB810303668F
:10077000074B8033436601F01F040123A3408366C7
:1007800010BD00000854025800580258B804024036
:10079000000802400179A9B3082940D8204B02681B
:1007A0009A4222D01E4B143302689A421DD01C4B31
:1007B000283302689A4218D0194B3C3302689A4297
:1007C00013D0174B503302689A420ED0144B643347
:1007D00002689A4209D0124B783302689A4204D0D8
:1007E0000F4B8C3302689A4201D1012200E00022B3
:1007F0004AB14A1E0B4B03EB8202C266094A4032E1
:10080000026708E00BE04A1E074B03EB8202C26658
:10081000054A403202674A1E0123934043677047EE
:1008200008540258005902580009024001460020AD
:100830008A69D2B98A6A32B1012A0DD0022A03D05C
:10084000032A10D10EE000BFCA6A02F08072B2F132
:10085000807F00D1012007E0CA6AB2F1C07F00D1D9
:10086000012001E000E000BF36E08A69B2F5005FD8
:100870001BD18A6A32B1012A07D0022A03D0032A87
:1008800011D10AE000BF01200EE0CA6A02F08072B6
:10089000B2F1807F00D1012006E0CA6AB2F1C07FC8
:1008A00000D1012000E000BF16E08A6A32B1012ABF
:1008B00005D0022A04D0032A0CD103E000BF00BFF8
:1008C000012008E0CA6A02F08072B2F1807F00D194
:1008D000012000E000BF00BF7047704772B600BF44
:1008E000FEE700002DE9F041044601F033FD8046AB
:1008F00014B90120BDE8F08194F83500022808D031
:100900008020606500BF002084F8340000BF012013
:10091000F0E7FE492068884249D0FC491831206838
:10092000884244D0F9493031206888423FD0F749A5
:100930004831206888423AD0F449603120688842C2
:1009400035D0F24978312068884230D0EF49903173
:10095000206888422BD0ED49A8312068884226D0F3
:10096000EB492068884222D0E94918312068884242
:100970001DD0E74930312068884218D0E449483119
:100980002068884213D0E2496031206888420ED046
:10099000DF4978312068884209D0DD4990312068EC
:1009A000884204D0DA49A8312068884201D1012068
:1009B00000E0002068B12068006820F01E00216877
:1009C00008602068406920F080002168486125683F
:1009D00006E02068006820F00E00216808602568A5
:1009E000CA492068884270D0C849183120688842B6
:1009F0006BD0C64930312068884266D0C34948313F
:100A00002068884261D0C1496031206888425CD04A
:100A1000BE4978312068884257D0BC49903120685F
:100A2000884252D0B949A831206888424DD0B8498F
:100A30002068884249D0B64918312068884244D09D
:100A4000B3493031206888423FD0B14948312068ED
:100A500088423AD0AE4960312068884235D0AC49EE
:100A600078312068884230D0A94990312068884286
:100A70002BD0A749A8312068884226D0A5492068F4
:100A8000884222D0A3491431206888421DD0A14950
:100A900028312068884218D09E493C31206888421D
:100AA00013D09C495031206888420ED09949643156
:100AB0002068884209D0974978312068884204D05C
:100AC00094498C312068884201D1012000E0002047
:100AD00028B1206E006820F48070216E08608B4978
:100AE0002068884249D0894918312068884244D01A
:100AF00086493031206888423FD084494831206897
:100B000088423AD0814960312068884235D07F4997
:100B100078312068884230D07C4990312068884202
:100B20002BD07A49A8312068884226D0784920689D
:100B3000884222D076491831206888421DD07449F5
:100B400030312068884218D0714948312068884285
:100B500013D06F496031206888420ED06C497831DB
:100B60002068884209D06A4990312068884204D0C0
:100B70006749A8312068884206D12068006820F0C3
:100B800001002168086005E02068006820F001008D
:100B90002168086011E001F0DDFBA0EB08000528EA
:100BA0000BD920206065032084F8350000BF0020A9
:100BB00084F8340000BF01209CE6286800F00100A2
:100BC0000028E8D151492068884249D04F4918315E
:100BD0002068884244D04D493031206888423FD057
:100BE0004A494831206888423AD0484960312068F3
:100BF000884235D0454978312068884230D0434911
:100C00009031206888422BD04049A8312068884222
:100C100026D03F492068884222D03D4918312068BB
:100C200088421DD03A4930312068884218D038496E
:100C300048312068884213D03549603120688842A5
:100C40000ED0334978312068884209D0304990313C
:100C50002068884204D02E49A8312068884201D1FA
:100C6000012000E0002040B1A66D94F85C0000F087
:100C70001F013F208840B06007E0A76D94F85C003A
:100C800000F01F01012088407860204920688842D8
:100C900076D01E4918312068884271D01B49303106
:100CA000206888426CD0194948312068884267D052
:100CB000164960312068884262D014497831206832
:100CC00088425DD0114990312068884258D00F4940
:100CD000A8312068884253D00D49206888424FD0FF
:100CE0000B491831206888424AD0094930312068C0
:100CF000884245D0064948312068884240D004499E
:100D00006031206888423BD0014905E01000024074
:100D100010040240085402587831206888422FD0CD
:100D20002549206888422BD0234918312068884201
:100D300026D022492068884222D0204914312068D8
:100D400088421DD01D4928312068884218D01B498F
:100D50003C312068884213D01849503120688842BD
:100D60000ED0164964312068884209D01349783181
:100D70002068884204D011498C312068884201D112
:100D8000012000E0002068B1D4E919104860E06E4D
:100D900040B1E06E006820F48070E16E0860D4E934
:100DA0001C104860012084F8350000BF002084F842
:100DB000340000BF00BF9DE5A00402400854025863
:100DC00070B504460CB9012070BD94F835000228B6
:100DD00003D0802060650120F6E7DC492068884266
:100DE00049D0DA4918312068884244D0D749303197
:100DF000206888423FD0D5494831206888423AD09F
:100E0000D24960312068884235D0D0497831206895
:100E1000884230D0CD499031206888422BD0CB49D0
:100E2000A8312068884226D0C9492068884222D04B
:100E3000C7491831206888421DD0C5493031206823
:100E4000884218D0C24948312068884213D0C0492E
:100E50006031206888420ED0BD49783120688842D0
:100E600009D0BB4990312068884204D0B849A831E4
:100E70002068884201D1012000E00020F0B3042066
:100E800084F83500B149206888424BD0AF49183109
:100E90002068884246D0AD4930312068884241D030
:100EA000AA494831206888423CD0A849603120686E
:100EB000884237D0A54978312068884232D0A3498A
:100EC0009031206888422DD0A049A83120688842FE
:100ED00028D09F492068884224D09D491831206835
:100EE00088421FD09A493031206888421AD09849E8
:100EF00048312068884215D0954900E020E06031F3
:100F0000206888420ED0924978312068884209D002
:100F10008F4990312068884204D08D49A8312068DB
:100F2000884206D12068006820F00100216808602E
:100F300009E12068006820F001002168086002E1F2
:100F40002068006820F00E00216808607F49206852
:100F5000884249D07D4918312068884244D07B4975
:100F60003031206888423FD0784948312068884233
:100F70003AD0764960312068884235D0734978315B
:100F80002068884230D071499031206888422BD047
:100F90006E49A8312068884226D06D492068884271
:100FA00022D06B491831206888421DD06849303101
:100FB0002068884218D0664948312068884213D09A
:100FC00063496031206888420ED0614978312068D9
:100FD000884209D05E4990312068884204D05C493B
:100FE000A8312068884206D12068006820F00100FE
:100FF0002168086005E02068006820F00100216891
:10100000086052492068884270D0504918312068E1
:1010100088426BD04D4930312068884266D04B49B8
:1010200048312068884261D0484960312068884250
:101030005CD0464978312068884257D04349903186
:101040002068884252D04149A831206888424DD05A
:101050003F492068884249D03D491831206888427C
:1010600044D03B493031206888423FD0384948312C
:10107000206888423AD0364960312068884235D0AD
:10108000334978312068884230D031499031206826
:1010900088422BD02E49A8312068884226D02D497D
:1010A0002068884222D02B491431206888421DD004
:1010B000284928312068884218D026493C312068C8
:1010C000884213D023495031206888420ED02149EC
:1010D00064312068884209D01E49783120688842EE
:1010E00004D01C498C312068884201D1012000E0E5
:1010F0000020D8B1206E006820F48070216E086056
:10110000A56D94F85C0000F01F0101208840686024
:10111000D4E919104860E06E40B1E06E006820F438
:101120008070E16E0860D4E91C104860012084F8EA
:10113000350000BF002084F8340000BF206D10B1DE
:101140002046216D884700203EE600001000024046
:1011500010040240085402582DE9F84F04460020BC
:101160000090FE4800684FF41651B0FBF1FAA66DEE
:10117000D4F858803768D8F80090F9492068884238
:1011800049D0F74918312068884244D0F4493031B9
:10119000206888423FD0F2494831206888423AD0DE
:1011A000EF4960312068884235D0ED4978312068B8
:1011B000884230D0EA499031206888422BD0E849F3
:1011C000A8312068884226D0E6492068884222D08B
:1011D000E4491831206888421DD0E2493031206846
:1011E000884218D0DF4948312068884213D0DD4951
:1011F0006031206888420ED0DA4978312068884210
:1012000009D0D84990312068884204D0D549A83106
:101210002068884201D1012000E0002000287DD014
:1012200094F85C0000F01F01082088403840002836
:1012300068D0CB492068884249D0C9491831206814
:10124000884244D0C6493031206888423FD0C449E2
:101250004831206888423AD0C149603120688842CC
:1012600035D0BF4978312068884230D0BC499031B0
:10127000206888422BD0BA49A8312068884226D0FD
:10128000B8492068884222D0B6491831206888427F
:101290001DD0B44930312068884218D0B149483156
:1012A0002068884213D0AF496031206888420ED050
:1012B000AC4978312068884209D0AA499031206829
:1012C000884204D0A749A8312068884204D1206808
:1012D000006800F0040003E02068006800F00800E7
:1012E00080B12068006820F004002168086094F84C
:1012F0005C0000F01F0108208840B060606D40F085
:101300000100606594F85C0000F01F010120884036
:101310003840E8B392492068884200E0B7E24BD0F9
:101320008F4918312068884246D08D493031206875
:10133000884241D08A494831206888423CD0884957
:1013400060312068884237D08549783120688842EA
:1013500032D083499031206888422DD08049A8310D
:101360002068884228D07F492068884224D07D495F
:101370001831206888421FD07A493031206888426D
:101380001AD0784948312068884215D0754900E064
:1013900026E06031206888420ED07249783120689A
:1013A000884209D06F4990312068884204D06D4945
:1013B000A8312068884204D12068406900F080008C
:1013C00002E020680068002050B194F85C0000F052
:1013D0001F0101208840B060606D40F00200606530
:1013E00094F85C0000F01F01042088403840E8B306
:1013F0005B49206888424BD059491831206888429F
:1014000046D0574930312068884241D0544948314C
:10141000206888423CD0524960312068884237D0E9
:101420004F4978312068884232D04D499031206848
:1014300088422DD04A49A8312068884228D049499D
:101440002068884224D047491831206888421FD03C
:1014500044493031206888421AD0424948312068D6
:10146000884215D03F496031206800E024E088427E
:101470000ED03C4978312068884209D039499031F2
:101480002068884204D03749A8312068884204D1B6
:101490002068006800F0020002E020680068002078
:1014A00050B194F85C0000F01F0104208840B06047
:1014B000606D40F00400606594F85C0000F01F016E
:1014C000102088403840E8B325492068884251D030
:1014D00023491831206888424CD021493031206896
:1014E000884247D01E4948312068884242D01C4972
:1014F0006031206888423DD019497831206888429F
:1015000038D0174990312068884233D01449A83127
:10151000206888422ED01349206888422AD0114979
:1015200018312068884225D00E4930312068884221
:1015300020D00C494831206888421BD009496031CD
:10154000206800E04DE0884214D0064978312068D8
:1015500088420FD003499031206805E00C00002438
:101560001000024010040240884203D0FE49206867
:10157000884204D12068006800F0080003E0206879
:10158000006800F0040060B394F85C0000F01F01F4
:1015900010208840B0602068006800F4802080B18E
:1015A0002068006800F4002028B9206CC8B12046EB
:1015B000216C884715E0A06C98B12046A16C884743
:1015C0000FE02068006800F4807028B92068006887
:1015D00020F0080021680860206C10B12046216CC2
:1015E000884794F85C0000F01F01202088403840B4
:1015F00000287DD0DD492068884249D0DB49183178
:101600002068884244D0D9493031206888423FD090
:10161000D6494831206888423AD0D44960312068A0
:10162000884235D0D14978312068884230D0CF49BE
:101630009031206888422BD0CC49A831206888425C
:1016400026D0C949A8392068884221D0C649903996
:10165000206888421CD0C44978392068884217D055
:10166000C14960392068884212D0BF494839206892
:1016700088420DD0BC4930392068884208D0BA4928
:1016800018392068884203D0B7492068884204D1BD
:101690002068006800F0100003E02068006800F097
:1016A000020028B394F85C0000F01F01202088405D
:1016B000B06094F8350004282DD12068006820F02F
:1016C0001600216808602068406920F080002168C9
:1016D0004861206C08B9A06C28B12068006820F02F
:1016E00008002168086094F85C0000F01F0100E029
:1016F0003FE03F208840B060012084F8350000BF03
:10170000002084F8340000BF206D10B12046216D08
:101710008847BDE8F88F2068006800F4802080B119
:101720002068006800F4002028B9606C08B32046E7
:10173000616C88471DE0E06BD8B12046E16B8847BB
:1017400017E02068006800F4807068B920680068BD
:1017500020F0100021680860012084F8350000BFE7
:10176000002084F8340000BFE06B10B12046E16B2C
:101770008847606D00287AD0606D00F00100E8B302
:10178000042084F835007949206888424BD0774995
:1017900018312068884246D0744930312068884228
:1017A00041D072494831206888423CD06F4960314D
:1017B0002068884237D06D4978312068884232D01D
:1017C0006A499031206888422DD06849A831206844
:1017D000884228D06449A8392068884223D06249C9
:1017E0009039206888421ED05F4978392068884245
:1017F00019D05D4960392068884200E040E012D08D
:1018000059494839206888420DD0574930392068F5
:10181000884208D0544918392068884203D0524978
:101820002068884206D12068006820F00100216805
:10183000086005E02068006820F001002168086069
:1018400000BF0098401C0090504500D905E020687A
:10185000006800F001000028F3D100BF2068006894
:1018600000F0010020B1032084F8350003E00DE012
:10187000012084F8350000BF002084F8340000BF48
:10188000E06C002802D02046E16C8847D9E1384955
:101890002068884222D036491431206888421DD001
:1018A000334928312068884218D031493C312068BA
:1018B000884213D02E495031206888420ED02C49DE
:1018C00064312068884209D02949783120688842EB
:1018D00004D027498C312068884201D1012000E0E2
:1018E00000200028D2D02068056894F85C0000F041
:1018F0001F010420884000EA0900D8B305F0040065
:10190000C0B394F85C0000F01F0104208840C8F8C0
:10191000040005F4004080B105F4803030B9A06CBB
:101920000028B3D02046A16C88478AE1206C0028AB
:10193000ACD02046216C884783E105F02000E8BB4D
:101940000A492068884253D00849183120688842E3
:101950004ED0064930312068884249D00349483189
:101960002068884244D006E0B804024010000240DB
:10197000085402584FE0B44960312068884237D09B
:10198000B14978312068884232D0AF49903120681F
:1019900088422DD0AC49A8312068884228D0AB4974
:1019A0002068884224D0A9491831206888421FD075
:1019B000A6493031206888421AD000E025E0A349CA
:1019C00048312068884213D0A0496031206888429D
:1019D0000ED09E4978312068884209D09B499031C9
:1019E0002068884204D09949A8312068884206D1ED
:1019F0002068006820F008002168086005E0206881
:101A0000006820F0040021680860206C10B32046B4
:101A1000216C884715E194F85C0000F01F0102205A
:101A2000884000EA0900E8B305F00200D0B394F85A
:101A30005C0000F01F0102208840C8F8040005F493
:101A4000004070B105F4803028B9606C10B12046B8
:101A5000616C8847F5E0E06BF0B32046E16B8847A6
:101A6000EFE005F02000C0BB7749206888424ED0E7
:101A7000754918312068884249D07349303120684F
:101A8000884244D070494831206888423FD06E492E
:101A90006031206888423AD06B49783120688842AA
:101AA00035D000E04EE068499031206888422ED061
:101AB0006549A8312068884229D064492068884255
:101AC00025D0624918312068884220D05F493031E2
:101AD000206888421BD001E06EE02DE05B49483170
:101AE0002068884213D059496031206888420ED05E
:101AF000564978312068884209D05449903120688D
:101B0000884204D05149A8312068884206D1206813
:101B1000006820F014002168086005E02068006873
:101B200020F00A0021680860012084F8350000BF19
:101B3000002084F8340000BFE06BE8B32046E16B7E
:101B400088477EE094F85C0000F01F010820884080
:101B500000EA090080B305F0080068B33A4920683C
:101B600088424BD0384918312068884246D03649DF
:101B700030312068884241D033494831206888425A
:101B80003CD0314960312068884237D02E497831C5
:101B90002068884232D02C499031206888422DD06C
:101BA0002949A8312068884228D0284920688842DD
:101BB00024D02649183100E043E0206888421DD037
:101BC000224930312068884218D0204948312068A5
:101BD000884213D01D496031206888420ED01B49CD
:101BE00078312068884209D01849903120688842AD
:101BF00004D01649A8312068884206D120680068C0
:101C000020F01C002168086005E02068006820F0D2
:101C10000E002168086094F85C0000F01F010120AC
:101C20008840C8F804000120606584F8350000BFD2
:101C3000002084F8340000BFE06C10B12046E16C55
:101C4000884700BF65E50000100002401004024014
:101C50002DE9F041044600F07DFB804614B90120D7
:101C6000BDE8F081FE492068884249D0FC4918311E
:101C70002068884244D0FA493031206888423FD0F9
:101C8000F7494831206888423AD0F54960312068E8
:101C9000884235D0F24978312068884230D0F04906
:101CA0009031206888422BD0ED49A83120688842C5
:101CB00026D0EC492068884222D0EA4918312068B1
:101CC00088421DD0E74930312068884218D0E54964
:101CD00048312068884213D0E24960312068884248
:101CE0000ED0E04978312068884209D0DD49903132
:101CF0002068884204D0DB49A8312068884201D19D
:101D0000012000E00020002873D0606A00B100BF0D
:101D1000022084F8350000BF002084F8340000BFA2
:101D2000CF492068884249D0CD491831206888427F
:101D300044D0CB493031206888423FD0C84948312F
:101D4000206888423AD0C64960312068884235D040
:101D5000C34978312068884230D0C1499031206829
:101D600088422BD0BE49A8312068884226D0BD4980
:101D70002068884222D0BB491831206888421DD093
:101D8000B84930312068884218D0B64948312068B7
:101D9000884213D0B3496031206888420ED0B149DF
:101DA00078312068884209D0AE4990312068884255
:101DB00004D0AC49A8312068884206D12068006868
:101DC00020F001002168086005E02068006820F02C
:101DD0000100216808600DE000F0BCFAA0EB0800EB
:101DE000052807D920206065032084F835000120EC
:101DF00036E769E02068006800F001000028EBD1B8
:101E00002068056898480540D4E902010843216923
:101E1000084361690843A1690843E1690843216AED
:101E200008430543606A042803D1D4E90B01084341
:101E300005436068292802D360682E2817D9606896
:101E40003F2802D36068422811D96068472802D32E
:101E5000606848280BD960684F2802D36068522810
:101E600005D96068742804D36068772801D80120F8
:101E700000E0002008B145F4801520680560206866
:101E8000456925F00705606A0543606A04280DD19D
:101E9000A06A0543E06A48B12046FEF7C7FC28B1B6
:101EA00040206065012084F83500D9E6206845614E
:101EB0002046FEF797FB064694F85C0000F01F01F1
:101EC0003F208840B0609EE068492068884222D068
:101ED00066491431206888421DD064492831206841
:101EE000884218D061493C312068884213D05F494C
:101EF0005031206888420ED05C49643120688842A5
:101F000009D05A4978312068884204D057498C3129
:101F10002068884201D1012000E00020E0B353494D
:101F20002068884222D051491431206888421DD04F
:101F30004E4928312068884218D04C493C312068ED
:101F4000884213D049495031206888420ED0474911
:101F500064312068884209D0444978312068884239
:101F600004D042498C312068884201D1012000E030
:101F7000002000B100BF022084F8350000BF00201F
:101F800084F8340000BF2068056839480540A0681F
:101F9000402802D1102106E02EE0A068802801D15F
:101FA000C10100E00021E06841EAD001206941EA76
:101FB000D001606941EAD001A06941EAD001E0693D
:101FC00041EAD001206A41EA10100543206805600B
:101FD00026492068401A1421B0FBF1F08000E0652A
:101FE0002046FEF7FFFA074694F85C0000F01F0158
:101FF00001208840786006E040206065032084F876
:10200000350001202CE61649206888427AD0144910
:1020100018312068884275D01149303120688842D3
:1020200070D00F494831206888426BD00C4960312C
:102030002068884266D00A4978312068884261D099
:1020400007499031206888425CD00549A831206852
:10205000884257D003492068884253D0014909E09B
:1020600010000240100402403F8010FE0854025845
:102070000F00FEFF18312068884243D0374920689E
:1020800088423FD035491831206888423AD03349D8
:1020900030312068884235D0304948312068884244
:1020A00030D02E496031206888422BD02B497831BE
:1020B0002068884226D02A492068884222D02849B0
:1020C0001431206888421DD0254928312068884273
:1020D00018D023493C312068884213D02049503120
:1020E000206888420ED01E4964312068884209D099
:1020F0001B4978312068884204D019498C31206806
:10210000884201D1012000E0002000B32046FEF704
:10211000DFFAA068802801D1002060602079216E5C
:102120000860D4E919104860606860B160680828E8
:1021300009D82046FEF72EFB0020E16E0860D4E9A6
:102140001C10486003E00020E06620676067002004
:102150006065012084F83500002081E540040240DC
:1021600008540258F8B502460B4600216D4DD2E0E6
:1021700001278F401E6806EA0704002C72D01E79E2
:1021800006F00306012E04D01E7906F00306022E87
:1021900013D190684F000326BE40B0434F00DE6865
:1021A000BE4030439060506801268E40B0431E7997
:1021B000C6F300168E40304350601E7906F00306C9
:1021C000032E09D0D0684F000326BE40B0434F0015
:1021D0009E68BE403043D0601E7906F00306022E92
:1021E00013D1CF0802F1200656F827004E07F70E4C
:1021F0000F26BE40B0434F07FF0E1E69BE4030435E
:10220000CF0802F1200646F8270010684F00032689
:10221000BE40B0431E7906F003064F00BE40304377
:1022200010605E6806F44036002E73D000BF3E4E4C
:10223000366846F002063C4F3E603E46366806F081
:102240000206009600BF00BF384E8F0856F82700E0
:102250008E07370F0F26BE40B043354EB24202D133
:10226000002629E056E0334EB24201D1012623E098
:10227000314EB24201D102261EE0304EB24201D1AF
:10228000032619E02E4EB24201D1042614E02D4E51
:10229000B24201D105260FE02B4EB24201D10626F3
:1022A0000AE02A4EB24201D1072605E0284EB2428A
:1022B00001D1092600E00A268F073F0FBE403043B8
:1022C0001A4E8F0846F827004FF0B0463068A043FA
:1022D0005E6806F4801606B120434FF0B0463060C9
:1022E0007068A0435E6806F4001606B120434FF004
:1022F000B04670606868A0435E6806F4003606B1B8
:10230000204368602868A0435E6806F4803606B102
:1023100020432860491C1E68CE40002E7FF428AF61
:10232000F8BD000080000058F4440258080400582A
:10233000000002580004025800080258000C02581D
:10234000001002580014025800180258001C0258CD
:102350000024025801480068704700000000002473
:102360000348006803490978084401490860704738
:10237000000000240800002410B5032000F0BCF881
:1023800001F07EFB10490968C1F303210F4A515C3B
:1023900001F01F0120FA01F40B48006800F00F0063
:1023A0001146085C00F01F0024FA00F0084908609C
:1023B000084804600F2000F00FF808B1012010BD9C
:1023C00000F036F80020FAE7184402588E6300083F
:1023D000100000240C00002470B504461148007859
:1023E00008B9012070BD0F4800784FF47A71B1FB35
:1023F000F0F00D490968B1FBF0F5284602F004F849
:1024000008B10120EEE7102C07D200222146501E11
:1024100000F034F80548046001E00120E2E7002004
:10242000E0E70000080000240C0000240400002461
:1024300008B500BF0648006840F002000449086083
:102440000846006800F00200009000BF00BF08BD11
:10245000F44402580146084600280DDB00BF00BFC7
:1024600000F01F0301229A4043099B0003F1E0237F
:10247000C3F8002100BF00BF00BF70472DE9F05F27
:1024800080460D46164603F031FF074639462A4678
:10249000334601F00700C0F1070ABAF1040F02D970
:1024A0004FF0040A01E0C0F1070AD14600F1040A26
:1024B000BAF1070F02D24FF0000A01E0A0F1030ABF
:1024C000D4464FF0010A0AFA09FAAAF1010A0AEA07
:1024D000020A0AFA0CFA4FF0010B0BFA0CFBABF1F3
:1024E000010B0BEA030B4AEA0B042146404603F0BA
:1024F00005FFBDE8F09F000000BF00F00702064B9B
:1025000019684FF6FF031940044B0B4343EA0221BD
:10251000014B196000BF70470CED00E00000FA05A8
:1025200070B5044615480068C0F3800048B91348E8
:10253000006800F00700A04201D0012070BD00201B
:10254000FCE70E48006820F0070020430B490860B4
:10255000FFF700FF054607E0FFF7FCFE401BB0F564
:102560007A7F01D90120E9E7044808380068C0F300
:1025700040300028F0D00020E0E700000C4802586E
:1025800010B501F033FA05490968C1F30211044A94
:10259000515C01F01F01C84010BD000020440258EA
:1025A0008E63000870B50146844D2D6805F0030365
:1025B000824D2D68C5F30530804D2D1D2D68C5F366
:1025C00000147E4D14352D68C5F3CC0515FB04F5BC
:1025D00001EE105AB8EE411AF0EE410A00286FD011
:1025E00023B1012B4ED0022B6BD16BE0734D283DF4
:1025F0002D68C5F340153DB3704D283D2D68C5F3DA
:10260000C1066F4D25FA06F201EE102AF8EE411AC6
:1026100001EE100AB8EE411A81EE812A9FED691A87
:10262000C0EE811A654D10352D68C5F3080501EE21
:10263000105AB8EE411A31EE811AF7EE001A31EE57
:10264000211A22EE010A1CE001EE100AB8EE411A2E
:10265000DFED5D1A81EE812A9FED5A1AC0EE811AD4
:10266000564D10352D68C5F3080501EE105AB8EE29
:10267000411A31EE811AF7EE001A31EE211A22EEDC
:10268000010A5BE001EE100AB8EE411ADFED4F1AC5
:1026900081EE812A9FED4B1AC0EE811A474D10350D
:1026A0002D68C5F3080501EE105AB8EE411A31EE57
:1026B000811AF7EE001A31EE211A22EE010A3DE0EE
:1026C00077E01DE001EE100AB8EE411A9FED402AB6
:1026D000C2EE011A9FED3B1A80EE812A374D10356C
:1026E0002D68C5F3080501EE105AB8EE411A32EE16
:1026F000011AB7EE002A31EE021A21EE810A1DE01E
:1027000001EE100AB8EE411ADFED301A81EE812A8F
:102710009FED2C1AC0EE811A284D10352D68C5F397
:10272000080501EE105AB8EE411A31EE811AF7EEA3
:10273000001A31EE211A22EE010A00BF00BF1F4D20
:1027400010352D68C5F3462501EE105AB8EE411A32
:10275000F7EE001A31EE211AC0EE011ABCEEE11AB2
:1027600081ED001A154D10352D68C5F3064501EEB3
:10277000105AB8EE411AF7EE001A31EE211AC0EEE7
:10278000011ABCEEE11A81ED011A0C4D10352D68CD
:10279000C5F3066501EE105AB8EE411AF7EE001ABD
:1027A00031EE211AC0EE011ABCEEE11A81ED021AD7
:1027B00003E000250D604D608D6070BD2844025817
:1027C0000090D003000000460024744C0024744A9A
:1027D000001BB74B70B50146844D2D6805F003030F
:1027E000824D2D68C5F30550804D2D1D2D68C5F314
:1027F00000247E4D1C352D68C5F3CC0515FB04F572
:1028000001EE105AB8EE411AF0EE410A00286FD0DE
:1028100023B1012B4ED0022B6BD16BE0734D283DC1
:102820002D68C5F340153DB3704D283D2D68C5F3A7
:10283000C1066F4D25FA06F201EE102AF8EE411A94
:1028400001EE100AB8EE411A81EE812A9FED691A55
:10285000C0EE811A654D18352D68C5F3080501EEE7
:10286000105AB8EE411A31EE811AF7EE001A31EE25
:10287000211A22EE010A1CE001EE100AB8EE411AFC
:10288000DFED5D1A81EE812A9FED5A1AC0EE811AA2
:10289000564D18352D68C5F3080501EE105AB8EEEF
:1028A000411A31EE811AF7EE001A31EE211A22EEAA
:1028B000010A5BE001EE100AB8EE411ADFED4F1A93
:1028C00081EE812A9FED4B1AC0EE811A474D1835D3
:1028D0002D68C5F3080501EE105AB8EE411A31EE25
:1028E000811AF7EE001A31EE211A22EE010A3DE0BC
:1028F00077E01DE001EE100AB8EE411A9FED402A84
:10290000C2EE011A9FED3B1A80EE812A374D183531
:102910002D68C5F3080501EE105AB8EE411A32EEE3
:10292000011AB7EE002A31EE021A21EE810A1DE0EB
:1029300001EE100AB8EE411ADFED301A81EE812A5D
:102940009FED2C1AC0EE811A284D18352D68C5F35D
:10295000080501EE105AB8EE411A31EE811AF7EE71
:10296000001A31EE211A22EE010A00BF00BF1F4DEE
:1029700018352D68C5F3462501EE105AB8EE411AF8
:10298000F7EE001A31EE211AC0EE011ABCEEE11A80
:1029900081ED001A154D18352D68C5F3064501EE79
:1029A000105AB8EE411AF7EE001A31EE211AC0EEB5
:1029B000011ABCEEE11A81ED011A0C4D18352D6893
:1029C000C5F3066501EE105AB8EE411AF7EE001A8B
:1029D00031EE211AC0EE011ABCEEE11A81ED021AA5
:1029E00003E000250D604D608D6070BD28440258E5
:1029F0000090D003000000460024744C0024744A68
:102A0000001BB74B2DE9F04104460025A8464FF0C6
:102A10000062D4E9001011400020134659404040A4
:102A2000014331D1606E48B1B0F5801F0DD0B0F5D3
:102A3000001F11D0B0F5401F16D114E0FE48006809
:102A400040F40030FC49086010E0022104F1080065
:102A500002F034F9054609E0022104F1280002F0F1
:102A6000DFF9054602E001E0012500BF00BF55B9CE
:102A7000F1482430006820F44010616E0843EE49AC
:102A80002431086000E0A8464FF48072D4E90010B9
:102A90001140002013465940404001432ED1A06D03
:102AA00005281BD2DFE800F0030A11181900E248DC
:102AB000006840F40030E049086011E0002104F1B2
:102AC000080002F0FBF805460AE0002104F12800A6
:102AD00002F0A6F9054603E002E001E0012500BF8F
:102AE00000BF55B9D4482430006820F00700A16D1C
:102AF0000843D1492431086000E0A8464FF48062C1
:102B0000D4E90010114000201346594040400143D1
:102B10003DD1D4F8A400B0F5C00F24D007DC68B1D3
:102B2000B0F5001F11D0B0F5800F1FD114E0B0F543
:102B3000000F19D0B0F5200F18D116E0BE4800687C
:102B400040F40030BC49086012E0002104F10800A4
:102B500002F0B4F805460BE0002104F1280002F071
:102B60005FF9054604E003E002E001E0012500BF53
:102B700000BF5DB9B0482C30006820F46000D4F884
:102B8000A4100843AC492C31086000E0A8464FF47B
:102B90000062D4E90001104000211346584049402A
:102BA00008433DD1D4F8A800B0F1407F24D007DC21
:102BB00068B1B0F1807F11D0B0F1007F1FD114E077
:102BC000B0F1806F19D0B0F1A06F18D116E09A481B
:102BD000006840F400309849086012E0002104F1D8
:102BE000080002F06BF805460BE0002104F1280014
:102BF00002F016F9054604E003E002E001E00125D9
:102C000000BF00BF5DB98C482C30006820F0E06048
:102C1000D4F8A810084388492C31086000E0A84681
:102C20004FF00073D4E90010194000205940404093
:102C3000014328D1E06CA8B1102804D0202809D085
:102C4000302810D10DE07C48006840F400307A490B
:102C500008600AE0022104F1080002F02FF805469E
:102C600003E002E001E0012500BF00BF55B9724852
:102C70002030006820F03000E16C08436E492031BC
:102C8000086000E0A8464FF48053D4E900101940D2
:102C9000002059404040014337D1E06DB0F5005F5E
:102CA0001AD004DC50B1B0F5805F1ED10DE0B0F554
:102CB000405F18D0B0F5804F17D115E05E4800682E
:102CC00040F400305C49086011E0002104F1080084
:102CD00001F0F4FF05460AE0002104F1280002F0AB
:102CE0009FF8054603E002E001E0012500BF00BFB8
:102CF00055B951482430006820F4E040E16D0843A4
:102D00004D492431086000E0A8464FF40053D4E94F
:102D100000101940002059404040014335D1206E39
:102D2000B0F5403F1ED007DC68B1B0F5803F0BD056
:102D3000B0F5003F19D10EE0B0F5802F13D0B0F5FB
:102D4000A02F12D110E012E0012104F1080001F0DF
:102D5000B5FF05460BE0012104F1280002F060F800
:102D6000054604E003E002E001E0012500BF00BFEA
:102D700055B931482430006820F4E020216E084322
:102D80002D492431086000E0A8464FF48042D4E980
:102D9000000110400021134658404940084337D1F4
:102DA000D4F8AC00B0F1405F1ED007DC68B1B0F1E0
:102DB000805F0BD0B0F1005F19D10EE0B0F1804F11
:102DC00013D0B0F1A04F12D110E012E0012104F1B4
:102DD000080001F073FF05460BE0012104F1280013
:102DE00002F01EF8054604E003E002E001E00125E0
:102DF00000BF00BF5DB910482C30006820F0E040F3
:102E0000D4F8AC1008430C492C31086000E0A84607
:102E10004FF40043D4E900011840002158404940D4
:102E200008432AD1E06EB8B1B0F1805F06D0B0F1AE
:102E3000005F12D109E000002C440258F9480068F4
:102E400040F40030F749086009E0012104F108006E
:102E500001F034FF054602E001E0012500BF00BF9C
:102E600055B9F0482430006820F04050E16E084326
:102E7000EC492431086000E0A8464FF08073D4E9A3
:102E800000101940002059404040014328D1A06C57
:102E9000A8B1012804D0022809D0032810D10DE0E0
:102EA000E048006840F40030DE4908600AE0022192
:102EB00004F1080001F002FF054603E002E001E032
:102EC000012500BF00BF55B9D6482030006820F06A
:102ED0000300A16C0843D3492031086000E0A846F4
:102EE0004FF48003D4E900101940002059404040BD
:102EF00001437DD1CC48006840F48070CA49086025
:102F0000FFF728FA064606E0FFF724FA801B64283C
:102F100001D9032505E0C448006800F4807000284A
:102F2000F2D000BF85BBBF484430006800F4407059
:102F3000B4F8B01001F44071884213D0B94844305D
:102F4000006820F44077B7484430006840F480308F
:102F5000B449443108600846006820F480300860B5
:102F600008460760D4F8B000B0F5807F15D1FFF7B0
:102F7000F1F9064609E0FFF7EDF9801B41F28831CF
:102F8000884202D9032507E038E0A64844300068AB
:102F9000C0F340000028EED000BF55BB00BFB4F81E
:102FA000B00000F44070B0F5407F0ED19D481C3851
:102FB000006820F47C519D4AD4F8B000104041EAEA
:102FC000101098491C39086007E096481C380068C2
:102FD00020F47C5093491C390860924844300068C2
:102FE000B4F8B010C1F30B0108438E49443101E03D
:102FF00005E001E0086002E0A84600E0A8460122E2
:10300000D4E90001104000211346584049400843CC
:1030100030D1A06F18281AD005DC48B1082808D094
:10302000102817D10CE0202812D0282812D110E047
:1030300012E0012104F1080001F040FE05460BE01A
:10304000012104F1280001F0EBFE054604E003E055
:1030500002E001E0012500BF00BF55B971482830EA
:10306000006820F03800A16F08436E4928310860DD
:1030700000E0A8460223D4E900101940002059407E
:103080004040014329D1606F062816D2DFE800F0E6
:1030900003040B12131412E0012104F1080001F0E3
:1030A0000DFE05460BE0012104F1280001F0B8FEF9
:1030B000054604E003E002E001E0012500BF00BF97
:1030C00055B958482830006820F00700616F084360
:1030D00054492831086000E0A8460422D4E90010D1
:1030E0001140002013465940404001432BD1D4F8F1
:1030F0009000062816D2DFE800F003040B12131428
:1031000012E0012104F1080001F0D8FD05460BE0B2
:10311000012104F1280001F083FE054604E003E0EC
:1031200002E001E0012500BF00BF5DB93D482C3041
:10313000006820F00700D4F89010084339492C317A
:10314000086000E0A8462023D4E9000118400021CF
:1031500058404940084337D1D4F88C00B0F1405F63
:103160001ED007DC68B1B0F1805F0BD0B0F1005F1A
:1031700019D10EE0B0F1804F13D0B0F1A04F12D1B1
:1031800010E012E0002104F1080001F097FD05466F
:103190000BE0022104F1280001F042FE054604E0A4
:1031A00003E002E001E0012500BF00BF5DB91D485A
:1031B0002830006820F0E040D4F88C10084319490A
:1031C0002831086000E0A8464023D4E900101940E7
:1031D00000205940404001433CD1D4F89800B0F55C
:1031E000406F25D007DC68B1B0F5806F0BD0B0F52B
:1031F000006F20D10EE0B0F5805F1AD0B0F5A05F6F
:1032000019D117E019E0002104F1080001F056FD82
:10321000054612E0022104F1280001F001FE0546F6
:103220000BE000002C44025800480258FFFCFF0F3E
:1032300003E002E001E0012500BF00BF4DB9FE48F8
:10324000006820F4E050D4F898100843FA49086068
:1032500000E0A8468023D4E900101940002059401E
:103260004040014335D1D4F89C00B0F5C04F1ED08A
:1032700007DC68B1B0F5005F0BD0B0F5804F19D115
:103280000EE0B0F5004F13D0B0F5204F12D110E092
:1032900012E0002104F1080001F010FD05460BE0EA
:1032A000022104F1280001F0BBFD054604E003E023
:1032B00002E001E0012500BF00BF4DB9DE48006813
:1032C00020F46040D4F89C100843DB49086000E01B
:1032D000A8460823D4E9000118400021584049407D
:1032E000084317D1D4F88000B0F5805F07D10221E0
:1032F00004F1280001F094FD08B14FF00108CE4818
:10330000001F006820F44050D4F880100843CA49D8
:10331000091F08601023D4E900011840002158401B
:103320004940084315D1D4F89400B0F5807F07D107
:10333000022104F1280001F073FD08B14FF00108EB
:10334000BD48006820F44070D4F894100843BA498E
:1033500008604FF40023D4E90001184000215840D0
:103360004940084327D1D4F8A00030B1B0F5803FE0
:103370000AD0B0F5003F0FD10DE0002104F10800A4
:1033800001F09CFC054609E0022104F1280001F04F
:1033900047FD054602E001E0012500BF00BF4DB931
:1033A000A548006820F44030D4F8A0100843A24992
:1033B000086000E0A8464FF48023D4E900011840DB
:1033C00000215840494008432DD1D4F88400B0F57D
:1033D000801F06D0B0F5001F0CD0B0F5401F11D1F2
:1033E0000FE095482C38006840F4003092492C39A1
:1033F000086009E0012104F1280001F011FD0546F3
:1034000002E001E0012500BF00BF5DB98A48001F4E
:10341000006820F44010D4F8841008438649091F3E
:10342000086000E0A8464FF48032D4E90001104063
:103430000021134658404940084325D1206D18B15A
:10344000B0F5803F10D108E07B482C38006840F48C
:10345000003079492C39086008E0022104F10800A5
:1034600001F02CFC054601E0012500BF00BF55B965
:1034700071480C38006820F48030216D08436E4993
:103480000C39086000E0A8464FF00053D4E9001062
:103490001940002059404040014307D1022104F166
:1034A000280001F0BDFC08B14FF001084FF40032D4
:1034B000D4E9000110400021134658404940084318
:1034C00027D1E06FA0B1B0F5807F06D0B0F5007FC6
:1034D0000CD0B0F5407F0CD109E057482C3800687B
:1034E00040F4003054492C39086004E003E002E065
:1034F00001E0012500BF00BF55B94F48001F00681B
:1035000020F44070E16F08434B49091F086000E058
:10351000A8464FF48012D4E9001011400020134651
:1035200059404040014309D143480838006820F021
:103530000040216F08434049083908604FF40013E8
:10354000D4E900011840002158404940084309D1FE
:1035500039480838006820F08070A16E0843364969
:10356000083908604FF08043D4E90010194000206A
:1035700059404040014311D100BF2F4848380068EE
:1035800020F400402C494839086008460068D4F807
:10359000B410084328494839086000BF4FF0004282
:1035A000D4E9000110400021134658404940084327
:1035B00009D121480C38006820F04050616D084363
:1035C0001D490C3908604FF40002D4E90010114085
:1035D000002013465940404001430AD11648001FBD
:1035E000006820F44000D4F8881008431249091FED
:1035F00008600122002160681040494050400143AA
:1036000006D104F1080001F059FB054605B1A846B2
:10361000022200216068104049405040014307D118
:10362000012104F1080001F049FB054605B1A84657
:1036300004230020616801E0584402581940042224
:1036400040405140084307D1022104F1080001F035
:1036500035FB054605B1A8460823002061681940DE
:10366000082240405140084307D1002104F12800BE
:1036700001F0D6FB054605B1A8461023002061687D
:103680001940102240405140084307D1012104F164
:10369000280001F0C5FB054605B1A84620220021FF
:1036A0006068104049405040014307D1022104F1B5
:1036B000280001F0B5FB054605B1A846B8F1000F9A
:1036C00002D10020BDE8F0810120FBE72DE9F041A7
:1036D00004460D4614B90120BDE8F081BD480068DC
:1036E00000F00F00A8420ED2BA48006820F00F0088
:1036F0002843B84908600846006800F00F00A84257
:1037000001D00120E8E7207800F0040004280ED161
:10371000B1492069096801F07001884207D9AE48B3
:10372000006820F0700021690843AB4908602078E8
:1037300000F00800082811D1A749091D606909682F
:1037400001F07001884209D9A348001D006820F0EB
:10375000700061690843A049091D0860207800F0E5
:103760001000102811D19C49091DA069096801F4B5
:10377000E061884209D99848001D006820F4E060A3
:10378000A16908439449091D0860207800F02000D1
:10379000202811D190490831E069096801F07001D1
:1037A000884209D98C480830006820F07000E1692F
:1037B0000843894908310860207800F00200022897
:1037C0000ED18549E068096801F00F01884207D9E8
:1037D0008148006820F00F00E16808437E490860D6
:1037E000207800F00100002850D07B48006820F4C9
:1037F0007060A1680843784908606068022807D1B2
:10380000754818380068C0F34040F8B9012063E7F4
:103810006068032807D1704818380068C0F340601A
:10382000A0B9012058E76068012807D16A48183814
:103830000068C0F3002048B901204DE766481838F9
:103840000068C0F3800008B9012045E762480838E5
:10385000006820F00700616808435F490839086084
:10386000FEF778FD064608E0FEF774FD801B41F286
:103870008831884201D903202EE75748083800686C
:1038800000F038006168B0EBC10FEDD1207800F096
:10389000020002280ED15049E068096801F00F01CA
:1038A000884207D24C48006820F00F00E1680843C6
:1038B000494908604748006800F00F00A8420ED947
:1038C0004448006820F00F00284342490860084639
:1038D000006800F00F00A84201D00120FCE620782B
:1038E00000F0040004280ED13B492069096801F06A
:1038F0007001884207D23848006820F070002169C2
:10390000084335490860207800F00800082811D1E4
:103910003149091D6069096801F07001884209D2C6
:103920002D48001D006820F07000616908432A4995
:10393000091D0860207800F01000102811D12649D8
:10394000091DA069096801F4E061884209D2224892
:10395000001D006820F4E060A16908431E49091DAC
:103960000860207800F02000202811D11A49083181
:10397000E069096801F07001884209D216480830F0
:10398000006820F07000E1690843134908310860BD
:1039900000F076F810490968C1F303210F4A515C21
:1039A00001F01F0120FA01F70B48006800F00F003A
:1039B0001146085C00F01F0027FA00F00849086073
:1039C0000848076008480068FEF706FD8046404644
:1039D00082E6000000200052184402588E6300085E
:1039E000100000240C0000240400002410B500F096
:1039F00047F80D490968C1F303210C4A515C01F0F5
:103A00001F0120FA01F40848006800F00F00114679
:103A1000085C00F01F0024FA00F005490860054822
:103A200004600846006810BD184402588E63000800
:103A3000100000240C00002400B5FFF7D7FF054953
:103A40000968C1F30211044A515C01F01F01C8402A
:103A500000BD00001C4402588E63000800B5FFF74B
:103A6000C5FF05490968C1F30221044A515C01F010
:103A70001F01C84000BD00001C4402588E630008AE
:103A8000F0B5824E366806F0380636B1082E15D0ED
:103A9000102E15D0182E7DD114E07C4E103E3668C5
:103AA000C6F3401646B1794E103E3668C6F3C107DC
:103AB000774E26FA07F000E07548E5E07548E3E048
:103AC0007548E1E0714E1836366806F003046F4E13
:103AD00018363668C6F305116C4E1C36366806F08B
:103AE00001056A4E24363668C6F3CC0616FB05F689
:103AF00001EE106AB8EE410A002971D024B1012C00
:103B000050D0022C6DD16DE0604E103E3668C6F389
:103B100040163EB35D4E103E3668C6F3C1075C4E9C
:103B200026FA07F301EE103AF8EE411A01EE101AE8
:103B3000B8EE411A81EE812A9FED581AC0EE011AA3
:103B4000524E20363668C6F3080601EE106AB8EE0B
:103B5000411A31EE811AF7EE001A31EE211A62EEA7
:103B6000010A1EE001EE101AB8EE411ADFED4C1A00
:103B700081EE812A9FED491AC0EE011A434E20368C
:103B80003668C6F3080601EE106AB8EE411A31EE47
:103B9000811A00E076E0F7EE001A31EE211A62EEAB
:103BA000010A5BE001EE101AB8EE411A9FED3D2AC2
:103BB000C2EE011A9FED391A80EE012A334E2036EB
:103BC0003668C6F3080601EE106AB8EE411A32EE06
:103BD000011AB7EE002A31EE021A61EE810A3DE0C9
:103BE0004EE01DE001EE101AB8EE411ADFED2E1A7C
:103BF00081EE812A9FED291AC0EE011A234E20364C
:103C00003668C6F3080601EE106AB8EE411A31EEC6
:103C1000811AF7EE001A31EE211A62EE010A1DE058
:103C200001EE101AB8EE411A9FED1E2AC2EE011ADB
:103C30009FED1A1A80EE012A144E20363668C6F31C
:103C4000080601EE106AB8EE411A32EE011AB7EE1C
:103C5000002A31EE021A61EE810A00BF00BF0B4E4E
:103C600020363668C6F34626721C01EE102AB8EEDE
:103C7000411AC0EE811ABCEEE11A11EE100A00E002
:103C8000002001E0034800BF00BFF0BD104402580F
:103C90000090D00300093D0000366E010000004690
:103CA0000024744C0024744A001BB74B2DE9F047E4
:103CB000044614B90120BDE8F087207800F0010027
:103CC000002870D0F948006800F03808F74818302C
:103CD000D0F80090B8F1100F06D0B8F1180F0FD13E
:103CE00009F0030002280BD1F04810380068C0F337
:103CF000404000286AD06068002867D10120DAE7D8
:103D000000BF6068B0F5803F08D1E848103800680F
:103D100040F48030E549103908602EE0606868B9E9
:103D2000E2481038006820F48030E049103908601B
:103D30000846006820F4802008601EE06068B0F546
:103D4000A02F0DD1D9481038006840F48020D74901
:103D5000103908600846006840F4803008600CE0C4
:103D6000D2481038006820F48030D04910390860FB
:103D70000846006820F48020086000BF606898B1A1
:103D8000FEF7E8FA054606E0FEF7E4FA401B642871
:103D900001D903208FE7C54810380068C0F34040C0
:103DA0000028F1D012E012E0FEF7D4FA054606E052
:103DB000FEF7D0FA401B642801D903207BE7BB48FB
:103DC00010380068C0F340400028F1D100BF2078CF
:103DD00000F00200022879D1B448006800F03808E9
:103DE000B2481830D0F80090B8F1000F05D0B8F103
:103DF000180F35D109F0030088BBAC4810380068B3
:103E0000C0F3800018B1E06808B9012053E7A74863
:103E10001038006820F01900E1680843A349103900
:103E20000860FEF797FA054606E0FEF793FA401B96
:103E3000022801D903203EE79C4810380068C0F3EF
:103E400080000028F1D099480C38006820F0FE402E
:103E5000217C40EA016095490C39086045E0FFE7A4
:103E6000E06838B391481038006820F01900E16824
:103E700008438E4910390860FEF76CFA054606E0E3
:103E8000FEF768FA401B022801D9032013E7874890
:103E900010380068C0F380000028F1D083480C3847
:103EA000006820F0FE40217C40EA01607F490C3927
:103EB00008601AE07D481038006820F001007B4956
:103EC00010390860FEF746FA054607E00EE0FEF7F7
:103ED00041FA401B022801D90320ECE67348103850
:103EE0000068C0F380000028F1D100BF207800F006
:103EF000100010286FD16D48006800F038086B483A
:103F00001830D0F80090B8F1080F06D0B8F1180FAB
:103F10001CD109F00300012818D16448103800684A
:103F2000C0F3002020B1E069802801D00120C2E662
:103F300000BF5E48001F006820F07C5094F82010FD
:103F400040EA01605949091F086043E0E06938B35D
:103F500056481038006840F0800054491039086015
:103F6000FEF7F8F9054606E0FEF7F4F9401B0228D3
:103F700001D903209FE64D4810380068C0F30020A7
:103F80000028F1D000BF4948001F006820F07C5095
:103F900094F8201040EA01604449091F086019E0C4
:103FA00042481038006820F080004049103908600D
:103FB000FEF7D0F9054606E0FEF7CCF9401B0228D3
:103FC00001D9032077E6394810380068C0F3002093
:103FD0000028F1D100BF207800F00800082836D171
:103FE0006069D0B131486430006840F001002F4969
:103FF00064310860FEF7AEF9054606E0FEF7AAF95F
:10400000401B022801D9032055E628486430006887
:10401000C0F340000028F1D019E024486430006863
:1040200020F00100214964310860FEF793F905464C
:1040300006E0FEF78FF9401B022801D903203AE67B
:104040001A4864300068C0F340000028F1D120789D
:1040500000F02000202838D1A069D0B113481038D2
:10406000006840F48050114910390860FEF772F979
:10407000054606E0FEF76EF9401B022801D9032031
:1040800019E60A4810380068C0F340300028F1D023
:104090001BE006481038006820F4805003491039AE
:1040A0000860FEF757F9054609E000001044025881
:1040B000FEF750F9401B022801D90320FBE5D04848
:1040C0000068C0F340300028F2D1207800F00400EE
:1040D00004287DD1CB48006840F48070C94908604D
:1040E000FEF738F9054606E0FEF734F9401B642870
:1040F00001D90320DFE5C348006800F48070002880
:10410000F2D000BFA068012808D1BD487030006817
:1041100040F00100BA49703108602DE0A06868B92C
:10412000B7487030006820F00100B5497031086070
:104130000846006820F0040008601DE0A06805281B
:104140000DD1AF487030006840F00400AC497031C8
:1041500008600846006840F0010008600CE0A848CC
:104160007030006820F00100A549703108600846F1
:10417000006820F00400086000BFA068A0B1FEF74E
:10418000E9F8054608E0FEF7E5F8401B41F2883102
:10419000884201D903208EE5994870300068C0F349
:1041A00040000028EFD013E0FEF7D4F8054608E001
:1041B000FEF7D0F8401B41F28831884201D9032034
:1041C00079E58F4870300068C0F340000028EFD1D7
:1041D000606A00287DD08A481030006800F03800FE
:1041E000182877D0606A022875D18548006820F0C9
:1041F000807083490860FEF7ADF8054606E0FEF7DB
:10420000A9F8401B022801D9032054E57C48006826
:10421000C0F340600028F2D100BFD4E90A1041EA9F
:10422000001077492831096840F2F332914308437E
:10423000734928310860208E401EC0F30800616B6E
:10424000491E4FF47E4202EA41210843218F491E54
:10425000D20102EA014108433C21095D491E1202D4
:1042600002EA0161084366493031086000BF081F57
:10427000006820F00100091F0860614834300068C0
:104280004FF6F8718843A16C40EAC1005C493431B3
:1042900008605B482C30006820F00C00216C08435B
:1042A00057492C3108600846006820F00200616C14
:1042B000084353492C3108600846006840F48030B8
:1042C00008600846006840F400300860084600684E
:1042D00002E092E038E01FE040F4802008600846E9
:1042E000006840F0010008604548006840F08070B8
:1042F00043490860FEF72EF8054606E0FEF72AF867
:10430000401B022801D90320D5E43D480068C0F3D2
:1043100040600028F2D070E03948006820F08070DA
:1043200037490860FEF716F8054606E0FEF712F872
:10433000401B022801D90320BDE431480068C0F3C6
:1043400040600028F2D158E02D48283007682C48FA
:1043500030300668606A012821D007F00301A06AA6
:1043600081421CD1C7F30511E06A884217D1C6F318
:104370000801206B401E814211D1606B401EC6F3C4
:10438000462188420BD1A06B401EC6F306418842ED
:1043900005D1E06B401EC6F30661884201D00120C2
:1043A00089E4174834300068C0F3CC07A06CB842E9
:1043B00023D013482C30006820F0010010492C3124
:1043C0000860FDF7C7FF054600BFFDF7C3FF401BB0
:1043D000FBD00B48343000684FF6F8718843A16C6D
:1043E00040EAC10006493431086005482C300068B5
:1043F00040F0010002492C31086000205BE400001D
:10440000004402580048025870B504462546681E0C
:10441000B0F1807F01D301200FE0681E4FF0E02152
:1044200048610F214FF0FF3001F068FF00204FF08E
:10443000E021886107200861002070BD014600BFAF
:1044400091F88400012801D102207047012081F8F1
:10445000840000BF2420C1F888000868026808684A
:10446000006820F001000B68186022F00052002064
:104470004866086802602020C1F8880000BF00205C
:1044800081F8840000BF00BFDFE7000030B50446BC
:104490000D460448844203D12946204601F06CFCB5
:1044A00030BD000044000024704770B504460D463E
:1044B00000BF94F88400012801D1022070BD0120C2
:1044C00084F8840000BF2420C4F8880020680668AF
:1044D0002068006820F0010021680860206880687A
:1044E00020F06060284321688860204600F022FEAA
:1044F000206806602020C4F8880000BF002084F8EF
:10450000840000BF00BFD9E770B504460D4600BF68
:1045100094F88400012801D1022070BD012084F8A4
:10452000840000BF2420C4F8880020680668206842
:10453000006820F00100216808602068806820F091
:104540006040284321688860204600F0F3FD206821
:1045500006602020C4F8880000BF002084F8840092
:1045600000BF00BFD9E77047704770472DE9F0479B
:1045700004462068C569206806682068876840F698
:104580000F0005EA0009B9F1000F0FD105F0200076
:1045900060B106F0200010B907F0805030B1606FB4
:1045A00010B12046616F8847BDE8F087B9F1000F70
:1045B0007ED0FE48384018B9FD4830400028F7D07A
:1045C00005F0010058B106F4807040B10120216867
:1045D0000862D4F8900040F00100C4F8900005F0A3
:1045E000020058B107F0010040B1022021680862C2
:1045F000D4F8900040F00400C4F8900005F00400E6
:1046000058B107F0010040B1042021680862D4F8D5
:10461000900040F00200C4F8900005F0080070B16E
:1046200006F0200010B9E148384040B10820216868
:104630000862D4F8900040F00800C4F8900005F437
:10464000006060B106F0806048B14FF400602168FE
:104650000862D4F8900040F02000C4F89000D4F82C
:104660009000002852D005F0200050B106F0200044
:1046700010B907F0805020B1606F10B12046616F13
:104680008847D4F890A02068806800F04000402857
:1046900002D00AF0280070B3204600F075FE2068B2
:1046A000806800F04000402826D100BF00BF00E035
:1046B0002DE02168083151E8001F21F040002168F9
:1046C000083141E80002002AF1D100BFD4F880008F
:1046D00068B1B848D4F880100865D4F88000FCF7B9
:1046E0006FFB98B1D4F88000016D88470EE020463A
:1046F000FFF73BFF0AE003E02046FFF736FF05E047
:104700002046FFF732FF0020C4F890004CE7E06E2F
:1047100001287DD105F01000002879D006F01000A6
:104720000028FAD01020216808622068806800F014
:10473000400040286DD1D4F8800000689E4988422E
:104740006BD0D4F8800000689B491831884264D04F
:10475000D4F8800000689849303188425DD0D4F8A0
:104760008000006894494831884256D0D4F88000CF
:1047700000689149603188424FD0D4F880000068C9
:104780008D497831884248D0D4F8800000688A4941
:104790009031884241D0D4F8800000688649A83121
:1047A00088423AD0D4F8800000688449884234D0E6
:1047B000D4F8800000688149183188422DD0D4F89F
:1047C000800000687D493031884226D0D4F88000CE
:1047D00000687A49483188421FD0D4F880000068C8
:1047E00076496031884218D0D4F880000068734957
:1047F0007831884211D0D4F8800000686F49903138
:1048000088420AD0D4F8800000686C49A83102E0E0
:10481000AEE069E001E0884204D1D4F8800000688D
:10482000406803E0D4F88000006840681FFA80F810
:10483000B8F1000F57D0B4F85C00404553DDA4F840
:104840005E80D4F88000C069B0F5807F40D000BFA2
:1048500000BF216851E8001F21F48070226842E8FF
:1048600000010029F5D100BF00BF00BF2168083159
:1048700051E8001F21F001002168083141E80002E1
:10488000002AF3D100BF00BF00BF2168083151E802
:10489000001F21F040002168083141E80002002A91
:1048A000F3D100BF2020C4F88C000020E06600BFD8
:1048B00000BF216851E8001F21F01000226842E883
:1048C00000010029F5D100BFD4F88000FCF70AF8F8
:1048D00002202067B4F85C00B4F85E20801A81B230
:1048E0002046FFF7D3FD5FE634F85C0F6188401A7D
:1048F0001FFA80F860885C3CC8B3B8F1000F36D06E
:1049000000BF00BF216851E8001F21F490702268A9
:1049100042E800010029F5D100BF00BF00BF2168B7
:10492000083151E8001F214AD24301EA0200216800
:10493000083141E80002002AF1D100BF2020C4F86C
:104940008C000020E066606700BF00BF216851E86E
:10495000001F21F01000226842E800010029F5D173
:1049600000BF0220206741462046FFF78FFD1BE66F
:1049700005F4801050B107F4800038B14FF4801076
:10498000216808622046FFF7EFFD0DE605F0800084
:10499000B0B106F0800010B907F4000080B1A06F3C
:1049A00010B12046A16F8847FEE50000010000100D
:1049B000200100046F530008100002401004024060
:1049C00005F0400030B106F0400018B1204600F07C
:1049D00011FDE9E505F4000030B106F0804018B1A2
:1049E0002046FFF7C0FDDFE505F0807030B106F02E
:1049F000004018B12046FFF757FDD5E500BFD3E5CD
:104A000010B504460CB9012010BDA06900B100E04A
:104A100000BFD4F8880028B9002084F8840020461C
:104A200000F02AF82420C4F888002068006820F0EC
:104A3000010021680860A06A10B1204600F0A6FBC2
:104A4000204600F0EFFC012800D1DDE72068406837
:104A500020F49040216848602068806820F02A0097
:104A6000216888602068006840F0010021680860C3
:104A7000204600F007FCC7E710B5B6B00446142185
:104A800030A8FBF70AFDB82102A8FBF706FD404954
:104A9000206888427AD102210020CDE902101F90BF
:104AA00002A8FDF7AFFF08B1FBF718FF00BF3948B8
:104AB000006840F48010374908600846006800F438
:104AC0008010019000BF00BF00BF32480838006866
:104AD00040F002002F49083908600846006800F0DD
:104AE0000200019000BF00BF00BF0846006840F010
:104AF000080008600846006800F00800019000BF48
:104B000000BF4FF4005030900220319000203290CE
:104B100033900E20349030A91F48FDF723FB04206A
:104B20003090022031900020329033900820349051
:104B300030A91A48FDF716FB19481A4908604120A8
:104B40004860002117488160C1604FF480610161B5
:104B50000021416181614FF48071C1614FF44031A6
:104B6000016200214162FDF773F808B1FBF7B6FE60
:104B700000BF0C48C4F88000846300BF00221146C7
:104B80003520FDF77BFC3520FDF764FC36B010BD09
:104B900000500040E844025800040258000C02583B
:104BA00010000240D8000024704700BFFEE700005C
:104BB00008B500BF0A48006840F0010008490860D5
:104BC0000846006800F00100009000BF00BF00220E
:104BD00011460B20FDF752FC0B20FDF73BFC08BDF6
:104BE000D844025808B500BF1348006840F0800060
:104BF000114908600846006800F08000009000BF7E
:104C000000BF00BF0846006840F002000860084688
:104C1000006800F00200009000BF00BF00BF08461F
:104C2000006840F0080008600846006800F00800CE
:104C3000009000BF00BF08BDE044025810B51948FD
:104C400019490860194848604FF48051164881603E
:104C50004900C160C91001610C21416100218161DD
:104C6000C1610162416200200F4988620846FFF776
:104C7000C7FE08B1FBF732FE00210B48FFF744FCEA
:104C800008B1FBF72BFE00210748FFF70EFC08B127
:104C9000FBF724FE0448FFF7D1FB08B1FBF71EFE2B
:104CA00010BD00000050004044000024A086010018
:104CB00000BFFEE700BFFEE7704700002DE9F041AE
:104CC00004460E4600275548006800F003000328FC
:104CD00002D10120BDE8F08150482838006820F05A
:104CE00080604E4928390860FDF734FB054606E030
:104CF000FDF730FB401B022801D90320EAE74748B3
:104D000028380068C0F3C0600028F1D100BF4348D4
:104D1000006820F47C30216840EA01303F49086097
:104D2000A088401EC0F30800A168491E4FF47E42CF
:104D300002EA41210843A189491ED20102EA014148
:104D40000843217C491E120202EA016108433349EB
:104D50001031086000BF3148001D006820F0C0001D
:104D6000616908432D49091D08600846006820F064
:104D70002000A16908432949091D08600846006808
:104D800020F0100008602548143000684FF6F871D4
:104D90008843E16940EAC1002049143108601F4896
:104DA000001D006840F010001C49091D08602EB964
:104DB0000846006840F40020086012E0012E08D187
:104DC0001648001D006840F480101449091D086051
:104DD00007E01248001D006840F400100F49091D4B
:104DE00008600E482838006840F080600B49283978
:104DF0000860FDF7AFFA054606E0FDF7ABFA401B89
:104E0000022801D9032065E7044828380068C0F368
:104E1000C0600028F1D038465CE700002844025802
:104E20002DE9F04104460E4600275548006800F081
:104E30000300032802D10120BDE8F0815048283842
:104E4000006820F080504E4928390860FDF782FA4A
:104E5000054606E0FDF77EFA401B022801D9032033
:104E6000EAE7474828380068C0F340700028F1D1CD
:104E700000BF4348006820F07C70218840EA015060
:104E80003F490860A088401EC0F30800A168491E81
:104E90004FF47E4202EA41210843A189491ED20112
:104EA00002EA01410843217C491E120202EA016123
:104EB000084333491831086000BF3148001D0068BD
:104EC00020F44060616908432D49091D08600846C7
:104ED000006820F40070A16908432949091D086091
:104EE0000846006820F48070086025481C3000687F
:104EF0004FF6F8718843E16940EAC10020491C314E
:104F000008601F48001D006840F480701C49091D9E
:104F100008602EB90846006840F48000086012E07E
:104F2000012E08D11648001D006840F40000144905
:104F3000091D086007E01248001D006840F08070FD
:104F40000F49091D08600E482838006840F080505D
:104F50000B4928390860FDF7FDF9054606E0FDF725
:104F6000F9F9401B022801D9032065E704482838D5
:104F70000068C0F340700028F1D038465CE70000BC
:104F800028440258704710B5FDF7EAF910BD00003B
:104F900000B59DB04C210AA8FBF77FFA202102A89A
:104FA000FBF77BFA0220FDF7BBFA00BF002001905F
:104FB0002348006820F44040214908600846006802
:104FC00000F44040019000BF00BF00BF1C480068D3
:104FD00000F40050B0F5005FF8D101200A90000401
:104FE0000B90022013900221149115912821169103
:104FF000012117910221189119910C211A91002178
:105000001B911C910AA8FEF751FE08B1FBF766FC44
:105010003F20029003200390002004900820059078
:10502000402006900790000108904020099003213D
:1050300002A8FEF74BFB08B1FBF750FC1DB000BD0A
:10504000184802582F48006840F470002D49086045
:105050002D48006800F00F00072806D22A48006893
:1050600020F00F00C01D284908602848006840F063
:1050700001002649086000202449103108602348B7
:10508000006823490840214908601F48006800F073
:105090000F00072806D91C48006820F00F00C01D2B
:1050A000194908600020194918310860091D086075
:1050B000091D086017481549283108601648091D60
:1050C00008601648091D08600020091D0860134883
:1050D000091D08600020091D08601048091D0860AE
:1050E0000020091D08600948006820F48020074955
:1050F0000860002005496031086043F2D200084989
:105100000860704788ED00E000200052004402581B
:105110007FEDF6EA000202020000FF0180020101B9
:105120000040005210B50248FFF720FA10BD000001
:105130004400002470B5456E2DB90125A0F86A50D1
:10514000A0F868501CE0102310240568AD68C5F372
:1051500042610568AD686A0F0A4DAD5C15FB04F548
:10516000094EB65C95FBF6F5A0F86A50054D6D5CEE
:1051700015FB03F5044E765C95FBF6F5A0F8685038
:1051800070BD0000766300087E63000890F8281068
:1051900001F00801082907D10168496821F400419C
:1051A000826B11430268516090F8281001F00101F0
:1051B00039B10168496821F40031C26A11430268BB
:1051C000516090F8281001F00201022907D101680E
:1051D000496821F48031026B11430268516090F8F4
:1051E000281001F00401042907D10168496821F45D
:1051F0008021426B11430268516090F8281001F041
:105200001001102907D10168896821F48051C26B0F
:1052100011430268916090F8281001F020012029C4
:1052200007D10168896821F40051026C11430268BA
:10523000916090F8281001F04001402913D10168D5
:10524000496821F48011426C114302685160416C3D
:10525000B1F5801F07D10168496821F4C001826C53
:1052600011430268516090F8281001F080018029F4
:1052700007D10168496821F40021C26C114302681A
:105280005160704738B504460020C4F89000FDF71F
:1052900061F805462068006800F00800082821D160
:1052A0006FF07E402B4600224FF400110090204604
:1052B00000F0CCFBB0B100BF00BF216851E8001F77
:1052C00021F08000226842E800010029F5D100BFEA
:1052D0002020C4F8880000BF002084F8840000BFAC
:1052E000032038BD2068006800F00400042830D195
:1052F0006FF07E402B4600224FF480010090204644
:1053000000F0A4FB28B300BF00BF216851E8001FD4
:1053100021F49070226842E800010029F5D100BF15
:1053200000BF00BF2168083151E8001F21F00100D3
:105330002168083141E80002002AF3D100BF202093
:10534000C4F88C0000BF002084F8840000BF032054
:10535000C7E72020C4F88800C4F88C000020E0666D
:10536000206700BF84F8840000BF00BFB9E770B5B4
:105370000546AC6B0020A4F85E00A4F85600204659
:10538000FFF7F3F870BD000000BF00BF026852E8ED
:10539000002F22F49071036843E80012002AF5D12F
:1053A00000BF00BF00BF0268083252E8002F104B58
:1053B00002EA03010268083242E80013002BF2D12E
:1053C00000BFC16E01290CD100BF00BF026852E8C6
:1053D000002F22F01001036843E80012002AF5D1E3
:1053E00000BF2021C0F88C100021C16641677047C2
:1053F000FEFFFFEF10B5044600BF00BF216851E873
:10540000001F21F04000226842E800010029F5D188
:1054100000BF2020C4F888000020A0672046FFF7C6
:10542000C3FB10BD2DE9F04F89B005460020089060
:10543000F8492868884200D100E000BF2969A868BF
:10544000084369690843E96940EA01082868006877
:10545000F149084040EA0800296808602868406867
:1054600020F44050E968084329684860D5F818805E
:10547000E8492868884202D0286A40EA0808286873
:105480008068E649084040EA080029688860286882
:10549000C06A20F00F00696A08432968C86200BF2B
:1054A000DF492868884220D1DE48006800F03800D3
:1054B000182811D005DC48B1082809D0102811D1CE
:1054C00008E020280AD028280CD109E001240BE0AC
:1054D000042409E0082407E0102405E0202403E068
:1054E000402401E0802400BF42E1CF49286888427F
:1054F00019D1CC48006800F00700062810D2DFE878
:1055000000F0030507090B0D00240BE0042409E05B
:10551000082407E0102405E0202403E0402401E0F3
:10552000802400BF24E1C1492868884219D1BD48C0
:10553000006800F00700062810D2DFE800F003053D
:1055400007090B0D00240BE0042409E0082407E000
:10555000102405E0202403E0402401E0802400BF63
:1055600006E1B3492868884219D1AE48006800F0C6
:105570000700062810D2DFE800F0030507090B0D2D
:1055800000240BE0042409E0082407E0102405E0CF
:10559000202403E0402401E0802400BFE8E0A54986
:1055A0002868884219D19F48006800F00700062843
:1055B00010D2DFE800F0030507090B0D00240BE013
:1055C000042409E0082407E0102405E0202403E077
:1055D000402401E0802400BFCAE09749286888423F
:1055E00020D19048006800F03800182811D005DC60
:1055F00048B1082809D0102811D108E020280AD085
:1056000028280CD109E001240BE0042409E0082437
:1056100007E0102405E0202403E0402401E080247A
:1056200000BFA5E085492868884219D17D480068F7
:1056300000F00700062810D2DFE800F00305070994
:105640000B0D00240BE0042409E0082407E01024DB
:1056500005E0202403E0402401E0802400BF87E02F
:1056600077492868884219D16E48006800F0070021
:10567000062810D2DFE800F0030507090B0D00240F
:105680000BE0042409E0082407E0102405E02024AE
:1056900003E0402401E0802400BF69E069492868F4
:1056A000884220D15F48006800F03800182811D0E7
:1056B00005DC48B1082809D0102811D108E02028BD
:1056C0000AD028280CD109E001240BE0042409E0C9
:1056D000082407E0102405E0202403E0402401E032
:1056E000802400BF44E058492868884220D14D48B2
:1056F000006800F03800182811D005DC48B10828EF
:1057000009D0102811D108E020280AD028280CD16F
:1057100009E001240BE0042409E0082407E0102438
:1057200005E0202403E0402401E0802400BF1FE0C6
:105730003849286888421AD13A48001D006800F0AC
:105740000700062810D2DFE800F0030507090B0D5B
:1057500002240BE0042409E0082407E0102405E0FB
:10576000202403E0402401E0802400BF00E08024E6
:1057700000BF2849286888424BD1102C1AD006DC7B
:10578000022C09D0042C0BD0082C29D10DE0202CA0
:1057900021D0402C24D120E0FCF7F2FE064623E085
:1057A00005A8FCF7FFFE069E1EE002A8FDF712F812
:1057B000039E19E01B4854380068C0F3401040B104
:1057C000184854380068C0F3C101204820FA01F697
:1057D00000E01E4E08E01E4E06E04FF4004603E0D7
:1057E00000260120089000BF00BF002E10D01949EC
:1057F000686A31F81000B6FBF0F9686800EB400009
:10580000484503D868680003484525D20120089020
:1058100007E153E0000C0058F369FFCFFFF4FF11DC
:105820000010014054440258004400400048004029
:10583000004C00400050004000140140007800403F
:10584000007C004000180140001C01400090D00383
:1058500000093D005E6300087849686A31F810C0AD
:105860006246002330461946FAF7A0FD4FF4807CCB
:1058700000220346A3FB0C0B01FB0CB103FB02133C
:105880006968490884461CEB010143EB0200CDE93D
:105890000010D5F804C06246002308460199FAF7C3
:1058A00085FD0746B7F5407F05D3B7F5801F02D2C7
:1058B0002868C760B5E001200890B2E0E869B0F55B
:1058C000004F5BD1082C1AD005DC5CB1012C0DD047
:1058D000042C2DD10EE0102C16D0202C23D0402CDF
:1058E00026D122E0FEF7A8F8064625E0FEF7B6F836
:1058F000064621E005A8FCF755FE069E1CE002A81E
:10590000FCF768FF039E17E04D480068C0F34010A5
:1059100038B14B480068C0F3C1014A4820FA01F68B
:1059200000E0484E08E0484E06E04FF4004603E031
:1059300000260120089000BF00BF7EB33F49686A7F
:1059400031F81000B6FBF0F04000696800EB510040
:10595000B0FBF1F7102F0ED3B7F5803F0BD24FF607
:10596000F07007EA000AC7F342004AEA000A286812
:10597000C0F80CA055E00120089052E0082C1BD084
:1059800005DC64B1012C0ED0042C2ED10FE0102CBC
:1059900017D0202C24D0402C27D123E041E0FEF763
:1059A0004BF8064625E0FEF759F8064621E005A823
:1059B000FCF7F8FD069E1CE002A8FCF70BFF039E17
:1059C00017E01F480068C0F3401038B11C48006859
:1059D000C0F3C1011B4820FA01F600E0194E08E0AF
:1059E000194E06E04FF4004603E00026012008901F
:1059F00000BF00BFAEB11149686A31F81000B6FBB4
:105A0000F0F0696800EB5100B0FBF1F7102F06D3FE
:105A1000B7F5803F03D2B8B22968C86001E0012021
:105A200008900120A5F86A00A5F8680000206867C2
:105A3000A867089809B0BDE8F08F00005E63000811
:105A4000004402580090D00300093D002DE9F041C8
:105A500004460D4617469846069E41E0701C0028F5
:105A60003ED0FCF777FCA0EB0800B04200D816B996
:105A70000320BDE8F0812068006800F0040070B3E6
:105A8000802D2DD0402D2BD02068C069C0F3C000E0
:105A900078B10820216808622046FFF775FC0820CD
:105AA000C4F8900000BF002084F8840000BF0120EB
:105AB000DFE72068C069C0F3C02080B14FF4006008
:105AC000216808622046FFF75FFC2020C4F89000A0
:105AD00000BF002084F8840000BF0320C9E7FFE76F
